:020000040800F2
:10000000780D0020F1C2000869B500086BB5000842
:100010006DB500086FB5000871B50008000000005C
:1000200000000000000000000000000073B50008A0
:1000300075B500080000000077B5000879B5000824
:1000400029C300082DC3000831C3000835C30008C8
:1000500039C300083DC300087BB5000893B500080C
:10006000ABB50008C3B50008DFB5000841C3000800
:1000700045C3000849C300084DC3000851C3000828
:1000800055C3000859C300085DC3000861C30008D8
:1000900065C3000869C300086DC3000803B6000803
:1000A00071C3000875C3000879C3000847B600088B
:1000B0007DC3000881C3000885C3000889C3000808
:1000C0008DC3000891C3000895C3000899C30008B8
:1000D0009DC30008ABB6000881B7000853B80008FC
:1000E00025B90008A1C30008A5C30008000000004E
:1000F0000000000000000000000000000000000000
:100100000000000000000000A9C30008ADC3000803
:10011000B1C30008B5C30008B9C30008BDC30008D7
:10012000C1C30008C5C30008C9C30008CDC3000887
:10013000D1C30008D5C30008D9C30008DDC3000837
:10014000E1C30008E5C30008E9C30008FBB50008E7
:100150002DE9F04107000E00BE4200D23E005FF4E0
:10016000802001F039FC002802D01C20804601E0EC
:100170002020804638000021424601F02BFD04007B
:100180000D00200029003200002301F06DFD040065
:100190000D0014F0FF3415F000052000BDE8F081DB
:1001A00080B502F039F8DFF8000A007801F0FAFFB4
:1001B000DFF8F80900210160DFF8F409002101608F
:1001C000DFF8F00900210170DFF8EC09002101607F
:1001D000DFF8E80900210170DFF8E409002101706F
:1001E000DFF8E00901210170DFF8DC09002101706E
:1001F000DFF8D80901F0E2FB5FF4002001F0D0FB4A
:10020000DFF8CC09008810F4C850B0F5C85F09D0F9
:1002100002220A21012002F093FDDFF8B8090078DC
:1002200001F0B2FADFF8B00909210170092001F0EC
:10023000FDFB012000F039FBDFF8CC0B008800F05B
:1002400009FADFF8000B008800F078FA80B201F0BC
:100250001DFCDFF8B80B008800F070FA80B201F0E6
:1002600020FC01BD10B5DFF86809008810F4C85003
:10027000B0F5C85F0DD001F08AFC0400E4B2002C98
:1002800007D000F0C0FB102001F031FC002001F08D
:100290001EFC10BD10B50400E4B2002C08D1DFF83C
:1002A000A80A017BDFF8A00AC07A00F033F827E043
:1002B000DFF85C0BFF2181705FF4803001F08CFB74
:1002C000002804D0DFF8480B0021817014E05FF4AF
:1002D000003001F081FB002804D0DFF8340B01214D
:1002E000817009E05FF4802001F076FB002803D0E4
:1002F000DFF81C0B02218170012003F0E0F80120DF
:1003000010BD10B50400E4B2002C01D100F05FF87C
:10031000012010BD70B504000D0001200600E4B2FC
:10032000002C05D0E4B2012C02D0E4B2022C49D159
:100330005FF4E02001F042FBE4B2002C03D0022C79
:100340000BD005D31AE05FF4803001F029FB17E0F1
:100350005FF4003001F024FB12E04FF4004001F0A4
:100360003BFB002807D05FF4802001F019FBDFF889
:100370005408057001E00020060001E0002006009E
:10038000DFF84C08008810F4C850B0F5C85F1BD0E7
:100390004FF4004001F020FB002815D05FF400303E
:1003A00001F01AFB002806D04FF48061DFF8640AE0
:1003B00003F0ABF908E04FF48061DFF8580A03F06E
:1003C000A7F901E0002006003000C0B270BD10B5F2
:1003D00086B0DFF8FC07008810F4C850B0F5C85F9D
:1003E00009D00121DFF82C0A03F092F90121DFF88E
:1003F000240A03F08AF9012001F038FFDFF8AC0786
:1004000000210160DFF8A80700210160DFF8A807DC
:1004100000210160DFF8A40700210170DFF8A007C8
:1004200000210170DFF88C0700210170DFF89807C8
:100430000021017000A801F06AFBDFF8DC0900A9C7
:10044000182203F0ADF9DFF8D0090068040020039A
:1004500004D5DFF874070021017007E0DFF86407B6
:100460000078D0F12000DFF86017087006B010BDEA
:1004700010B50400E4B2002C05D1DFF8CC08C07A36
:1004800000F00EF80BE00421DFF8880903F02DF9E5
:10049000DFF87C198870012003F011F8012010BDED
:1004A00038B50400012005004FF4004001F094FA33
:1004B000002824D0E4B2002C02D0012C0ED01BE086
:1004C000DFF80C07008810F4C850B0F5C85F04D0FE
:1004D0000421DFF8400903F018F912E0DFF8F00614
:1004E000008810F4C850B0F5C85F04D00421DFF8CC
:1004F000240903F00DF904E00020050001E00020CC
:1005000005002800C0B232BD10B50400E4B2002CD2
:1005100006D1DFF83408C07ADFF80019087008E067
:10052000DFF8EC08DFF8F41809788170012002F098
:10053000C6FF012010BD38B50400E4B2002C19D16B
:10054000DFF80408C07ADFF8D8180870DFF88006F2
:10055000008810F4C850B0F5C85F14D001F07FFADD
:100560000500EDB2042D0ED1DFF8B408007801F0DB
:100570000BF908E0DFF89808DFF8A4180978817013
:10058000012002F09CFF012032BD10B50400E4B24E
:10059000002C06D1DFF8B007C07ADFF888180870A1
:1005A00008E0DFF86C08DFF87C180978817001201A
:1005B00002F085FF012010BD10B50400E4B2002C4C
:1005C00019D1DFF88407C07ADFF808160870DFF861
:1005D0000006008810F4C850B0F5C85F14D04FF47E
:1005E000806001F0F9F900280ED1DFF8E805007805
:1005F00001F0CAF808E0DFF81808DFF8D815097824
:100600008170012002F05BFF012010BD10B50400D5
:10061000E4B2002C0BD1DFF83007C07ADFF82817DE
:10062000097B50EA012080B200F014F810E0DFF8F6
:10063000E007DFF8D417098889B2090AC170DFF82A
:10064000D007DFF8C41709888170022002F037FF55
:10065000012010BD70B50400DFF8AC07048001F084
:10066000D4FD06003100DFF8A0070088FFF770FD19
:1006700005002D0A2D022D0A280001F0FCF970BD9D
:1006800010B50400E4B2002C19D14FF4806001F0E1
:10069000A3F9002824D1DFF8B006C07ADFF8A81645
:1006A000097B50EA0120DFF89C160880DFF89406E9
:1006B000008800F043F880B201F0E8F910E0DFF8BC
:1006C0005007DFF88016098889B2090AC170DFF87F
:1006D0004007DFF8701609888170022002F0EFFEF3
:1006E000012010BD10B50400E4B2002C13D1DFF8D6
:1006F0005806C07ADFF85016097B50EA0120DFF86F
:100700000C170880DFF80407008800F017F880B2A3
:1007100001F0C7F910E0DFF8F806DFF8F0160988F5
:1007200089B2090AC170DFF8E806DFF8E016098827
:100730008170022002F0C3FE012010BD38B5040014
:10074000A4B2182C01DA1820040001F05EFD0500A7
:100750006D432900A4B22000FFF7FAFC05002D0A22
:10076000ADB2280080B232BD10B50400E4B2002C56
:1007700005D1DFF8D405C07A00F012F80EE05FF47E
:10078000002001F029F9002801D0012000E000201C
:10079000DFF87C168870012002F091FE012010BD68
:1007A00038B504005FF4001001F008F901F027F9F2
:1007B0000500E4B2002C21D028031ED4680504D51E
:1007C0005FF4001001F0ECF817E05FF4002001F096
:1007D000E7F8280411D51021DFF84C0602F095FF48
:1007E000DFF8EC03008810F4C850B0F5C85F04D0FF
:1007F0000221DFF8200602F088FF20E028031ED542
:10080000680504D55FF4001001F0CAF817E05FF442
:10081000002001F0D3F8280411D51021DFF80806D4
:1008200002F076FFDFF8A803008810F4C850B0F596
:10083000C85F04D00221DFF8DC0502F069FF5FF435
:10084000001001F0C9F800280FD0DFF884030088F9
:1008500010F4C850B0F5C85F04D0DFF8C8050078C0
:1008600000F092FF022001F0E1F831BD10B5040064
:10087000E4B2002C05D1DFF8D004C07A00F015F8FE
:1008800011E04FF4805001F0A7F8002804D0DFF801
:1008900080050121817003E0DFF87405002181707B
:1008A000012002F00CFE012010BD10B50400E4B2DE
:1008B000002C02D0E4B2012C0FD14FF4C05001F053
:1008C0007DF8E4B2012C04D14FF4805001F068F8B7
:1008D00003E04FF4006001F063F810BD38B5040088
:1008E000E4B2002C3BD1DFF86004407BDFF8581401
:1008F000897B50EA0120DFF8E81C0860DFF8E00C93
:1009000000680004DFF8D81C0860DFF8D40C006829
:10091000DFF83414C97ADFF83024127B51EA02215F
:100920000843DFF8BC1C0860DFF81C04C07B01280A
:1009300001D1032500E00125DFF80C04007CDFF87D
:100940000814497C50EA0120DFF8E01408802900EF
:10095000C9B2DFF88C0C006800F021F81DE0DFF868
:10096000800C0068000EDFF8A8144871DFF8700CE6
:100970000068000CDFF898140871DFF8640C006858
:10098000000ADFF88C14C870DFF88404DFF8501C0C
:1009900009688170042002F092FD012032BD38B553
:1009A00004000D00202001F017F8002805D14FF4B5
:1009B000806001F011F8002802D0032000F01AFE38
:1009C000DFF81C0C0460EDB22800C01E012803D81B
:1009D000102000F0E5FFFFE74FF4006000F0EEFFAD
:1009E0004FF4815000F0DCFF002000F0F7F831BD3B
:1009F00080B500F008F800F03DF8DFF8E80BDFF80C
:100A00006C1D016001BD10B5022002F08AF9DFF80B
:100A1000D81B088000200400E4B2112C0ADA200060
:100A2000C0B200F008F8E4B2DFF8441D21F8140069
:100A3000641CF1E710BD38B50400022002F071F922
:100A4000DFF8A41B0880E4B2DFF8A00B30F8140034
:100A50000500DFF8940B008845434FF4E150B5FBE7
:100A6000F0F5DFF8100D008845436420B5FBF0F584
:100A7000280032BD10B500200400E4B2112C24DAA5
:100A8000E4B2DFF86C0BE4B2DFF8E41C31F81410C8
:100A900020F81410E4B26042DFF8541B11EB400060
:100AA000E4B2DFF84C1B31F81410A0F84010E4B2A7
:100AB000DFF83C0B10EB4400E4B2DFF8B41C31F873
:100AC0001410A0F84010641CD7E7002001F00FF8C4
:100AD00010BD38B50400E4B2002C63D14FF480603F
:100AE00000F07AFF00285DD19748017B9648C07AD4
:100AF000FFF710FC9448407BFFF7D7FE9248807BBD
:100B0000FFF7CEFC9048C07BFFF74AFE8E48007C82
:100B10008C4908808B4800888B49497C50EA012029
:100B20008849088087480088FFF708FE05002800EC
:100B300000F0ACFF8448807C8349C97C50EA0120E6
:100B400080B2FFF787FD8048007DB0490880AF483C
:100B500000887D49497D50EA0120AC490880AB48B6
:100B60000088FFF7EBFD0500280000F09AFF7648AB
:100B7000807DAA4908707448C07DA94908707248F0
:100B8000007EA84908707048407E124908701048DD
:100B9000008810F4C850B0F5C85F03D06A48807E62
:100BA00001F00BFD012032BD5B090020C8080020C8
:100BB000C408002064090020C00800206509002046
:100BC000660900206809002067090020101C040045
:100BD00026090020630900206B09002038B50400B5
:100BE000E4B2002C40F0AC804FF4806000F0F4FEE2
:100BF000002801D00020A4E02021864802F075FDE5
:100C0000002846D14FF4004000F0E6FE002831D025
:100C1000DFF8640B008810F4C850B0F5C85F01D04D
:100C200001F0C3F95FF4002000F0D6FE002810D0D8
:100C300010217D4802F069FDDFF83C0B008810F4BC
:100C4000C850B0F5C85F21D00221724802F05DFDA6
:100C50001CE01021744802F05BFDDFF81C0B0088DB
:100C600010F4C850B0F5C85F10D00221694802F0F6
:100C70004FFD0BE0DFF8000B008810F4C850B0F512
:100C8000C85F03D001F091F901F0A6F9C82001F086
:100C9000EDFA4FF4805000F09FFE002805D10320AC
:100CA00000F0C4FEFFF793FB35E0DFF8B80B00213E
:100CB0000160DFF8FC0B0078202803DBDFF8F00B85
:100CC0000021017001F09DFA050058480088454355
:100CD000DFF8C00B0560DFF80809006800280FD1B5
:100CE000DFF8940A008810F4C850B0F5C85F03D04C
:100CF0004C48007800F048FD082000F097FE0AE01C
:100D0000DFF8B00BDFF8D8180968016000F01EF8B2
:100D1000052000F08BFEDFF8600A008810F4C85050
:100D2000B0F5C85F06D0DFF8540A007800F02CFD5B
:100D3000FFF75EFE4FF4806000F032FE01F075FABE
:100D4000012032BD5E0300200C070020F8B5DFF85B
:100D5000680B008800F068FD06002C48008800F051
:100D600063FD0700DFF84C0B0068B919884236D2E2
:100D700000F0F3FEDFF8441B088000F0FBFEDFF814
:100D8000401B0880DFF82C0B0068DFF8341B098853
:100D900048430400DFF8280B00880500DFF81C0B2F
:100DA00000884519B4FBF5F00600DFF8180B066063
:100DB000DFF8100B0068401CDFF80C1B0860DFF840
:100DC0000C0BDFF8F01A09680160DFF8F80A006818
:100DD000002814D1DFF8EC0A012101600FE0DFF8F0
:100DE000E40A0660DFF8CC0A0068C01BDFF8D81AF6
:100DF0000860DFF8D80ADFF8BC1A0968016005202E
:100E000000F014FEF1BD00005C0300206003002030
:100E10009006002000080140900700206009002093
:100E200061090020620900200010014034090020FF
:100E300070B586B000A800F06AFEDFF8940A00A939
:100E4000182202F0ADFCDFF8880A0079DFF8841A76
:100E50000870DFF87C0A8089DFF8601A0880DFF804
:100E6000700AC089DFF8581A0880DFF8640A8068C1
:100E7000DFF8641A0860DFF8580A006805002804E3
:100E800011D50821DFF8540A02F042FCDFF8E80827
:100E9000008810F4C850B0F5C85F04D00821DFF80E
:100EA0003C0A02F035FCDFF82C0A007801286CD0EF
:100EB000C0F0FF81032810D0C0F08980052800F021
:100EC00030812CD3072800F06481C0F046810928C6
:100ED00000F0E281C0F07281EBE100F0B8FCDFF8D5
:100EE000F8090068DFF8F8190968884216D2DFF8B7
:100EF000F009DFF8E41909680160DFF87C08008870
:100F000010F4C850B0F5C85F04D0DFF8740800785A
:100F100000F03AFCDFF8BC0904210170C9E100F0DF
:100F2000BBFCDFF8B4090068DFF8B419096888422F
:100F30002AD0DFF8A4090068DFF8A41909688842FC
:100F400011D2DFF83408008810F4C850B0F5C85F3B
:100F500004D0DFF83008007800F016FCDFF87409E0
:100F60000121017010E0DFF81008008810F4C8506B
:100F7000B0F5C85F04D0DFF80408007800F004FC86
:100F8000DFF850090321017093E100F06DFCDFF8F8
:100F900050090068DFF840190968884216D2DFF866
:100FA0004009DFF8341909680160DFF8CC070088D0
:100FB00010F4C850B0F5C85F04D0DFF8C40700785B
:100FC00000F0E2FBDFF80C090421017071E100F090
:100FD0004BFCDFF80C090068B0F5807F40F0A08082
:100FE000A80245D535F40015280316D535F400259B
:100FF000280428D51021DFF8EC0802F089FBDFF87F
:101000007807008810F4C850B0F5C85F1BD00221E3
:10101000DFF8C80802F07CFB15E055F40025280431
:1010200011D51021DFF8BC0802F06FFBDFF848078C
:10103000008810F4C850B0F5C85F04D00221DFF872
:101040009C0802F062FBDFF88C0803210170DFF8D6
:101050002807008810F4C850B0F5C85F04D0DFF846
:101060001C07007800F090FB280000F0D4FC57E04B
:10107000DFF860080921017001F0CEF835F48065D1
:10108000E8063CD535F01005280402D500F0BCFF79
:1010900003E000F0B9FF00F0CDFFDFF84C08007866
:1010A00000283CD0DFF84408807800280BD1DFF816
:1010B0004008A821817001230022DFF838180020A1
:1010C00003F0F1F82BE000200600DFF82008C078DC
:1010D000F6B2864207D2F6B2DFF814083018A8211B
:1010E0008170761CF1E7DFF80408C07800900123D6
:1010F0000022DFF80018002003F076F90FE0280046
:1011000000F089FCDFF87006008810F4C850B0F5D4
:10111000C85F04D0DFF8E007007800F035FB4DE24F
:10112000C7E000F094FBDFF83C070068DFF8941795
:101130000968884210D3DFF84006008810F4C850D0
:10114000B0F5C85F04D0DFF83806007800F01CFB6B
:10115000DFF8800706210170ABE000F09DFBDFF8AF
:1011600004070068DFF860170968884210D3DFF8C9
:101170000806008810F4C850B0F5C85F04D0DFF846
:101180000406007800F000FBDFF848070721017033
:101190008FE000F069FBDFF8CC060068DFF82C1761
:1011A0000968884209D3DFF8BC06DFF82017096810
:1011B0000160DFF82007082101707AE0DFF8D4062B
:1011C0000068002806D0DFF8CC060068401EDFF873
:1011D000C4160860DFF8BC06006800285BD1DFF8A1
:1011E000F4060921017035F48065E80643D535F031
:1011F0001005DFF8F406007800282FD0DFF8EC06A1
:10120000807800280BD1DFF8E806A821817001233F
:101210000022DFF8E016002003F045F827E0002068
:101220000600DFF8C806C078F6B2864207D2F6B2EA
:10123000DFF8BC063018A8218170761CF1E7DFF8D2
:10124000AC06C0780090DFF8A406C3789BB20022F9
:10125000DFF8A016002003F0C7F808E0280402D544
:1012600000F0D2FE03E000F0CFFE00F0E3FE280025
:1012700000F0D1FB0FE0280000F0CDFBDFF8F80410
:10128000008810F4C850B0F5C85F04D0DFF86806D5
:10129000007800F079FA0CE015F4846F01D035F095
:1012A0002005DFF85806006880088000DFF84C163B
:1012B0000860DFF820060078092800F07F8115F427
:1012C0009020B0F5902F40F0CA80DFF83406007807
:1012D000022809D004280FD0DFF828060068000B88
:1012E000DFF8241608700EE0DFF818060068400BDF
:1012F000DFF81416087006E0DFF808060068800BB7
:10130000DFF804160870DFF80006007810F001001E
:10131000DFF8F4150870DFF8F4050078DFF8E81559
:101320000978884271D0DFF8E405DFF8DC15097828
:101330000170DFF830050068401CDFF828150860F0
:10134000280313D5DFF868050078DFF8B4150978AD
:101350000818DFF85C150870DFF8540500782028BD
:101360001FDBDFF84C05002101701AE0DFF84005B3
:101370000078DFF88C15097888420AD3DFF8300549
:101380000078DFF87C150978401ADFF8241508701A
:1013900007E0DFF86C050078D0F12000DFF81015C9
:1013A0000870DFF8D403008810F4C850B0F5C85FA7
:1013B0002BD0DFF8FC0400788A49096831F8100066
:1013C000DFF84C150880DFF8E8040078884931F828
:1013D0001000DFF840150880DFF834050188DFF8D9
:1013E000380503F034FDDFF82C050188DFF8280507
:1013F00003F02FFDDFF8D804407D002805D0FFF76B
:1014000039FBDFF8CC0400214175DFF8A404007833
:10141000C0F30010DFF8F0140870DFF80005007862
:10142000DFF8E4140978884200F0C880DFF8EC04A3
:10143000DFF8D414097801700821DFF8A00402F065
:1014400064F9CD48008810F4C850B0F5C85F00F0CA
:10145000B5800821DFF8840402F057F9AEE0A80354
:101460000DD4DFF8BC0402210170DFF89804006895
:10147000000C10F00100DFF8901408700CE0DFF8A9
:10148000A00401210170DFF87C040068C00B10F09B
:101490000100DFF874140870DFF880040078DFF8CA
:1014A00068140978884200F08980680306D4DFF860
:1014B000B4030068401CDFF8AC130860DFF85C047C
:1014C000DFF8441409780170280411D50821DFF8E9
:1014D0000C0402F01AF9A848008810F4C850B0F5BE
:1014E000C85F6BD00821DFF8F40302F00EF965E065
:1014F000280318D4DFF82C04007800280AD0DFF87D
:1015000024040078DFF818140978401ADFF814145E
:1015100008701BE0DFF808040078D0F10800DFF85D
:101520000414087012E0DFF8FC030078DFF8F01311
:1015300009780818DFF8EC130870DFF8E803007882
:10154000082803DBDFF8DC0300210170DFF88C03DF
:1015500002F0D8F804004FF6D0300440DFF8C4039E
:10156000007801280DD008D3032811D00CD305280A
:1015700016D011D307281AD015D340F229400443BE
:1015800017E054F0210414E040F22540044310E039
:1015900040F2044004430CE040F22640044308E0DB
:1015A00054F0220405E040F22A40044301E054F4E0
:1015B0008164210089B2C94802F0B6F82900C54803
:1015C000007800F03EFA06B070BD10B50400E4B239
:1015D000002C03D1C648C07A00F00CF8012010BDE1
:1015E000AC080020A80800203E090020A4C0000884
:1015F0002C05002010B50400E4B2012C09D0E4B29F
:10160000022C06D0E4B2032C03D0E4B2042C40F048
:10161000AB80102000F0D2F94FF4806000F0DCF9CC
:1016200000280BD1E4B22000022804D0042805D100
:101630000320040002E001200400FFE7E4B22000E0
:10164000022804D0042811D1102000F0A9F94A483A
:10165000008810F4C850B0F5C85F03D0494800783E
:1016600000F092F8022000F0E1F97DE042480088A5
:1016700010F4C850B0F5C85F1DD0E4B2012C0DD1F4
:101680004FF4004000F0A8F9002802D000F08DFCD3
:1016900011E000F08AFC00F09FFC0CE04FF40040E9
:1016A00000F09AF9002802D000F0AEFC03E000F050
:1016B000ABFC00F0BFFC5FF4001000F08DF90028D7
:1016C0003CD05FF4001000F079F95FF4002000F0E6
:1016D00083F9002819D05FF4002000F06FF94FF46F
:1016E000004000F079F9002828D010217D4802F050
:1016F0000FF82148008810F4C850B0F5C85F1DD01D
:101700000221764802F004F818E05FF4002000F0AF
:1017100047F94FF4004000F05FF900280ED0102187
:10172000704801F0F2FF1448008810F4C850B0F57A
:10173000C85F03D00221694801F0E7FFFEF747FECA
:10174000092000F073F94FF4846000F037F90A487B
:10175000008810F4C850B0F5C85F03D06648007820
:1017600000F012F800F058FD10BD00004C050020FC
:10177000C80400204009002026090020600900203C
:10178000610900206209002010B504006648008845
:1017900010F4C850B0F5C85F44D06448E4B2048087
:1017A0005FF4802000F018F9002814D15F48028807
:1017B0000021022001F051FA5C4802880421022035
:1017C00001F04BFA5A48594909880180594857494C
:1017D0000988018026E04FF4806000F0FDF80028C1
:1017E00003D0102000F073F91CE0FFF70CF9FFF7AD
:1017F00041F92F4800785049096831F810004449F0
:1018000008802B4800784D4931F810004149088084
:101810003F480188404803F01AFB3E4801883E4893
:1018200003F017FB012010BD010089B2002902D18D
:101830005FF0FF300AE042480088414B1B88584364
:10184000020089B2B2FBF1F252081000704780B575
:10185000234800681949098808182149086000F0E0
:101860001BF801BDC008002080B5154800881C4940
:101870000968884207D21A48006811490988401A45
:101880001749086003E016484FF48071016000F0CA
:1018900003F801BDCC08002011490968090A0800B5
:1018A00080B2184909684118164A11607047000053
:1018B00067090020B00800205E03002036090020E0
:1018C00038090020B4080020B8080020BC08002017
:1018D000900700206B090020D0080020000801407C
:1018E000C80800200010014053090020780800209B
:1018F0000C0700200E0700206309002010E000E024
:1019000068090020C408002064090020660900203E
:101910003A0900203C090020000800406509002029
:101920006A090020690900202609002040090020DA
:10193000280900202A090020A80800202C050020E2
:101940005C030020A04800210160A0480021016044
:10195000704700231A0050E8003F1900002905D104
:101960000123190040E800131900521C92B24EF6F0
:1019700060239A4201DA0029EDD092B24EF660233C
:101980009A4202DABFF35F8F01E000231A0070472A
:1019900000221100BFF35F8F40E800121100704772
:1019A00010B504008A48FFF7D4FF87480068204339
:1019B000854908608648FFF7EBFF10BD10B50400AD
:1019C0008348FFF7C6FF80480068A0437E4908604F
:1019D0007F48FFF7DDFF10BD38B504007C48FFF7F6
:1019E000B8FF794800682040A04201D1012500E0FD
:1019F00000257748FFF7CCFF2800C0B232BD10B5F4
:101A00007348FFF7A6FF7048006804007048FFF7AE
:101A1000BFFF200010BD10B504006D48FFF799FF0F
:101A2000694804606A48FFF7B3FF10BD10B50400B1
:101A30006748FFF78EFF644804716548FFF7A8FF09
:101A400010BD38B504000D006148FFF782FF5E4805
:101A500004715D4805605E48FFF79AFF31BD10B51F
:101A60005B48FFF776FF5848007904005848FFF7B5
:101A70008FFF200010BD10B504005548FFF769FF27
:101A8000514884605248FFF783FF10BD10B5040031
:101A90004F48FFF75EFF4C4884814D48FFF778FFC1
:101AA00010BD10B504004A48FFF753FF4648C481F3
:101AB0004748FFF76DFF10BD10B504004448FFF71D
:101AC00048FF414804614248FFF762FF10BD10B56E
:101AD00004003F48FFF73DFFE4B2112C01DB10206A
:101AE0000400394804753A48FFF752FF10BD10B59D
:101AF00004003748FFF72DFFE4B2112C01DB102062
:101B00000400314844753248FFF742FF10BD10B55C
:101B10008CB004002E48FFF71CFF06A82A491822A3
:101B200001F03EFE00A806A9182201F039FE28485F
:101B3000FFF72EFF200000A9182201F031FE0CB0A3
:101B400010BD10B52248FFF704FF1F4800690400CC
:101B50001F48FFF71DFF200010BD10B51C48FFF700
:101B6000F8FE1948808904001948FFF711FF20008A
:101B700080B210BD10B51648FFF7EBFE1248C089C1
:101B800004001348FFF704FF200080B210BD10B519
:101B90000F48FFF7DEFE0C48007D04000C48FFF7FD
:101BA000F7FE2000C0B210BDEFF31081080001283D
:101BB00001D10649086072B67047044800680128E0
:101BC00000D162B670470000A8070020D8080020A6
:101BD000D4080020D2B2203A22BF00FA02F100203D
:101BE00070475242D041D2F1200291404140D04052
:101BF00090404140704710B450F8041B81B1026816
:101C00001218001D50F8043BDC0744BFA9F1010481
:101C1000E31852F8044B43F8044B091FF9D1EBE7E2
:101C200010BC704713F0004C03D55B42524263F185
:101C300000039CEA210C00F0178010B5644603D322
:101C40004942404261F1000100F00EF8640004D303
:101C50004942404261F10001244203D55B425242B5
:101C600063F1000310BD00001B4213D1094236D1BD
:101C70002AB18446B0FBF2F002FB10C2704703F0B9
:101C80004FBAFCD30022002370470B000200002152
:101C900000207047904271EB030CF6D370B5B1FA97
:101CA00081F4B3FA83F52C1BA340C4F1200532FA6A
:101CB00005F63343A2405FF00046E64002E05B08D1
:101CC0005FEA3202841A71EB030524BF20462946DD
:101CD0007641F4D302000B003000002170BD012AD0
:101CE000CFD970B5140C20D0B1FA81F4B2FA82F5D4
:101CF000C4F120046419B4F12006D6D3B2405FF0D9
:101D00000044F440002502E052085FEA3303C61A9B
:101D100071EB020E24BF3046714664416D41F3D32E
:101D200002000B002000290070BD0C46B1FBF2F14F
:101D300002FB11452D0445EA1045B5FBF2F402FB08
:101D4000145580B240EA0545B5FBF2F002FB105293
:101D500040EA044070BD50F8041B61B150F8042BF8
:101D6000D30744BFA9F101039A18002342F8043BAA
:101D7000091FFAD1EFE7704740B2002809D540B2F9
:101D800010F00F02DFF8A83BD2180B0102F8043C58
:101D900004E040B2DFF8EC2C0B0183547047BFF332
:101DA0004F8FDFF8E40C006810F4E060DFF8E81B08
:101DB0000843DFF8D41C0860BFF34F8FFEE710B56F
:101DC0000400601EB0F1807F01D3012011E0601E8D
:101DD000DFF8C81B08600F215FF0FF30FFF7CCFF72
:101DE000DFF8BC0B00210160DFF8F40C0721016073
:101DF000002010BD7047704780B5FFF7A3FDFFF7C7
:101E0000D3FE00214FF4804003F040FB00215FF43B
:101E1000001003F04AFB00214FF4804003F036FB32
:101E200000215FF4003003F040FBDFF8B80C0088BD
:101E300010F4C850B0F5C85F53D0DFF8F40B4FF47E
:101E400080710180DFF8E80B03218170DFF8E00B7F
:101E50001021C170DFF8D81BDFF8D80B01F09AFB16
:101E6000DFF8CC0B40F2FF710180DFF8C40B0421D6
:101E7000C170DFF8BC1BDFF8F80C01F08BFBDFF85A
:101E8000B00B4FF478710180DFF8A41BDFF8A80BCA
:101E900001F080FBDFF8980B41F6CF010180DFF8FD
:101EA000901BDFF8900B01F075FBDFF8840B4FF40B
:101EB00084610180DFF8780B1021C170DFF8701B9E
:101EC000DFF8AC0C01F066FB00222021DFF8A00C4B
:101ED00001F021FC00224FF48061DFF8940C01F046
:101EE0001AFC00F01BF8DFF8FC0B008810F4C85057
:101EF000B0F5C85F01D000F0B4F81E2000F039F949
:101F000001F07AFCDFF8DC0B008810F4C850B0F563
:101F1000C85F01D000F092F962B601BD10B5FFF7BD
:101F200043FE00200400E4B2552C0BDAE4B2DFF8E3
:101F3000B80BE4B2DFF8B41B51F8241040F82410B9
:101F4000641CF0E7DFF8A00BDFF8A41BC163DFF827
:101F5000940B008810F4C850B0F5C85F05D0DFF8C6
:101F6000880B0FF28911C0F89C10DFF87C0BDFF8AA
:101F70007C1BD1F8AC10C0F8AC1000215FF0005011
:101F800003F044FB00F048F9DFF8580B008810F428
:101F9000C850B0F5C85F05D0002000F082F80020DE
:101FA00003F06CFDFFF709FE10BD80B52021DFF8BE
:101FB000C00B01F0AAFB0420FFF7F2FC4FF4005025
:101FC000FFF70AFD002806D14FF40050FFF7E8FCA8
:101FD000012000F066F801BD80B54FF48061DFF8A4
:101FE000900B01F092FB0820FFF7DAFC4FF4005051
:101FF000FFF7F2FC002806D14FF40050FFF7D0FCA9
:10200000012000F04EF801BD80B50420FFF7D6FC9A
:102010000820FFF7E1FC002806D1002000F041F87D
:102020004FF40050FFF7CAFC2021DFF8440B01F009
:102030006FFB01BD80B50820FFF7C0FC0420FFF74F
:10204000CBFC002806D1002000F02BF84FF4005004
:10205000FFF7B4FC4FF48061DFF8140B01F058FB7C
:1020600001BD80B50121052003F010FADFF8C00999
:102070004FF440710180DFF8B80903218170DFF867
:10208000B0090421C170DFF8A819DFF8E40A01F0F3
:1020900081FA002000F005F84FF40050FFF78EFCA5
:1020A00001BD10B50400E4B2002C02D0E4B2012C52
:1020B0001AD15FF0C060FFF781FCFFF775FDDFF814
:1020C000740C17210170DFF86C0C00214170DFF8EF
:1020D000640C00218170DFF85C0CC470DFF8540CD4
:1020E00003F060FAFFF769FD10BD000080B5002025
:1020F000FFF7D7FF202003F0F1FD002802D02020B9
:1021000003F000FE402003F0E9FD002802D040204B
:1021100003F0F8FD802003F0E1FD002802D08020CC
:1021200003F0F0FD4FF4807003F0D8FD00280CD0D0
:102130000820FFF751FC002803D05FF08060FFF714
:102140002FFC4FF4807003F0DDFD4FF4007003F0BE
:10215000C5FD00280CD00420FFF73EFC002803D06A
:102160005FF00070FFF71CFC4FF4007003F0CAFD35
:1021700001BD10B50400042003F04EFA2000C0B2E7
:1021800000F010F8DFF8B00BE4B2B0FBF4F0FFF7AA
:1021900016FE002800D0FEE700215FF0FF30FFF7B9
:1021A000EBFD10BD38B50400E4B2002C14D02500BE
:1021B000EDB20A2095FBF0F50A2045432C00E4B26D
:1021C000142C01DA14200400E4B23D2C01DB3C2085
:1021D0000400DFF8680B0470DFF85C0BDFF85C1BB1
:1021E0000978B0FBF1F0DFF8E81B0860DFF8E00BDE
:1021F0000068FFF7E4FD00215FF0FF30FFF7BCFD52
:1022000031BDDFF8380B00787047DFF8300B00780D
:102210004FF47A7148437047DFF8C40800688008BB
:102220008000DFF8BC1808607047DFF8B408006869
:1022300050F00300DFF8A81808607047704710B42A
:10224000010089B200290FD04B242200D2B2002A0B
:1022500008D05D242300DBB2002B01D05B1EFAE71F
:10226000521EF3E7491EECE710BC70470200D2B2E1
:10227000002A08D0AA231900C9B2002901D0491E9A
:10228000FAE7521EF3E7704710B50400E4B2002CE1
:1022900002D0012001F013F9012010BD10B5040097
:1022A000E4B2002C33D1DFF82C0BC07ADFF8541CD9
:1022B0000870FFF7A1FDDFF84C0C0078012804D06E
:1022C0001BD3032811D008D317E0FDF769FFDFF80F
:1022D000080BDFF8081B016022E003F0BCF9DFF80F
:1022E000F80ADFF8FC1A01601AE003F028FDDFF8B5
:1022F000E80ADFF8681B016012E0DFF8080C002133
:102300000170DFF8D40ADFF8581B016008E0DFF83D
:10231000740BDFF8F01B09788170012001F0CFF811
:10232000012010BD1CB50400E4B2002C05D1DFF87B
:10233000A40AC07A00F01EF81AE000A901A800F073
:10234000A8FBDFF8400B9DF804108170DFF8340B18
:102350009DF80510C170DFF82C0B9DF8001001717D
:10236000DFF8200B9DF801104171042001F0A7F85F
:10237000012016BD10B50400E4B2002C08D0E4B270
:10238000012C05D0E4B2032C02D0E4B2022C2DD1F2
:10239000DFF8740B0470DFF8740BFFF70FFBFFF727
:1023A000BDFDDFF8640B0078012804D01ED303289C
:1023B00010D018D31AE0DFF8B00B0078012805D14F
:1023C000012003F045FEFDF7EBFE02E0032003F0E1
:1023D0003FFE0BE04FF40040FFF7E2FA03F0D4FEBB
:1023E000FDF7DEFE02E003F07EFFFFE710BD38B52B
:1023F000040000200500E4B2002C17D1DFF8040B24
:102400000078012804D010D303280DD006D30CE0A7
:102410002000C0B2FEF7E2FB050011E02000C0B2D0
:1024200003F091F905000BE00AE009E04FF4806049
:10243000FFF7D2FADFF84C1A8870012001F03FF85C
:102440002800C0B232BD38B5040000200500E4B257
:10245000002C17D1DFF8AC0A0078012804D010D383
:1024600003280DD006D30CE02000C0B2FFF7ADF872
:10247000050011E02000C0B203F0BFF905000BE039
:102480000AE009E04FF48060FFF7A6FADFF8F419DC
:102490008870012001F013F82800C0B232BD10B5D9
:1024A0000400E4B2002C12D0DFF8D80900214171F9
:1024B000DFF8D00900210171DFF8C8090021C170DF
:1024C000DFF8C00901218170042000F0F8FF01202D
:1024D00010BD10B50400E4B2002C16D0DFF8A4093A
:1024E00000218171DFF89C0900214171DFF8940916
:1024F00000210171DFF88C090021C170DFF8840927
:1025000001218170052000F0DAFF012010BD10B517
:102510000400E4B2002C01D1FFF741FC012010BD02
:1025200038B5040000200500E4B2002C21D1DFF80A
:10253000A408C07A012804D0DFF89808C07A0028DF
:1025400021D1DFF8C0090078012804D010D3032876
:102550000DD006D30CE02000C0B2FEF705F905004F
:1025600011E02000C0B203F020FB05000BE00AE000
:1025700009E05FF40020FFF72FFADFF808198870F0
:10258000012000F09CFF2800C0B232BD10B504004D
:10259000E4B2002C05D1DFF83C08C07A00F00DF859
:1025A00009E0DFF8E008DFF8781A91F83810817058
:1025B000012000F084FF012010BD10B504002100AF
:1025C000C9B2022000F0D6FADFF8580A02880021CA
:1025D000022000F042FBDFF8500A028804210220AA
:1025E00000F03BFB0121DFF8440A02F0BCFB10BD08
:1025F00010B50400E4B2002C0DD1DFF8D807C07A82
:10260000DFF8201A0880DFF81C0A02880021022067
:1026100000F023FB08E0DFF86C08DFF8081A0988EF
:102620008170012000F04BFF012010BD10B50400A7
:10263000E4B2002C0DD1DFF89C07C07ADFF8E8196E
:102640000880DFF8E40902880421022000F005FB7D
:1026500008E0DFF83008DFF8D01909888170012020
:1026600000F02DFF012010BD10B50400E4B2002CD5
:1026700005D1DFF86007C07AFFF794FD08E0DFF8C6
:102680000408DFF8B81609788170012000F017FF00
:10269000012010BD38B5040001200500E4B2002C73
:1026A00031D1DFF83007C07A002813D0012827D1B4
:1026B000DFF854080078401E03D0401E012803D9DB
:1026C00005E0FFF772FC04E0FFF76FFC01E000207B
:1026D000050023E0DFF830080078012804D00CD38F
:1026E000032807D003D308E0FFF78EFC07E00020A3
:1026F00003F0C4F9FFF788FC01E0002005000DE0BD
:10270000002005000AE02021DFF8640400F0EDFF5E
:10271000DFF870178870012000F0D1FE2800C0B2E9
:1027200032BD38B5040001200500E4B2002C0FD101
:10273000DFF8A006C07A002804D0012805D1FFF7F1
:102740004BFC11E0FFF776FC0EE0002005000BE0EB
:102750004FF48061DFF8180400F0C7FFDFF824179A
:102760008870012000F0ABFE2800C0B232BD70B509
:102770000400E4B2002C35D0FFF741F90500280E23
:10278000DFF800174871280CDFF8F8160871280ADE
:10279000DFF8F016C870DFF8EC068570042000F052
:1027A0008EFE4FF40050FFF717F900281AD0DFF81B
:1027B000C00300F097FF0600B6B2B00503D55FF086
:1027C0000070FFF7FBF8DFF840070078012806D11A
:1027D000B6B2F00503D55FF08060FFF7EFF8012097
:1027E000FFF75FFC012070BD2DE9F04782B00400C7
:1027F000E4B2002C00F0998002208246002081463D
:102800005FFA89F9B9F1040F4CDA5FFA89F9DFF858
:10281000C40519EB0000C07A07005FFA89F9DFF8F8
:10282000B40519EB0000007B8DF800000120804604
:102830005FFA88F8FFB2B84508D25FFA88F800A8B6
:10284000002108F8001018F10108F1E7FFB23B0081
:102850009BB2002200A9002001F025FDDFF8D0077F
:10286000FFB2078001F09DFD002080465FFA88F8E6
:10287000B8F1040F11DA5FFA8AFA5FFA88F818EBF8
:102880000A00DFF800165FFA88F8DFF8F82518F874
:102890000220425418F10108E8E71AF1040A19F17C
:1028A0000209ADE74FF48061634800F00EFF0600B7
:1028B0005FFA8AFADFF8CC050AF800601AF1010A1B
:1028C0005FFA8AFADFF8BC0500210AF800101AF155
:1028D000010AFFF794F805005FFA8AFADFF8A40509
:1028E000290E0AF800101AF1010A5FFA8AFADFF8D5
:1028F0009405290C0AF800101AF1010A5FFA8AFA05
:10290000DFF88005290A0AF800101AF1010A5FFAB7
:102910008AFADFF870050AF800501AF1010A5FFA26
:102920008AFA504680B200F0CAFD0120BDE8F68761
:1029300018ED00E038B50400E4B2002C08D1DFF84F
:102940009404017BDFF88C04C07A03F061FD21E080
:1029500000AB0DF101020DF10201DFF87804C07A3D
:1029600003F0C9FD0500EDB2002D11D0DFF814050C
:102970009DF802108170DFF80C059DF80110C17000
:10298000DFF800059DF800100171032000F097FDAD
:102990002800C0B232BD00000400FA0514E000E0D7
:1029A00018E000E038B50400E4B2002C08D1DFF8EC
:1029B0002404017BDFF81C04C07A03F0FFFD23E050
:1029C000DFF81004C07A002802D0012807D00DE0FB
:1029D000DFF80004007B03F032FE050008E0DFF8BA
:1029E000F403007B03F05FFE050001E000200BE034
:1029F000EDB2022D07D0DFF88C048570012000F0C5
:102A00005EFD012000E0002032BD10B50400E4B2FC
:102A1000002C0BD1DFF81C06427BDFF81806017B87
:102A2000DFF81006C07A03F072FE00E0012010BD4E
:102A30009408002000100140000C014010B582B045
:102A40000400E4B2002C1AD000A9DFF88803C07A91
:102A500000F01CF8002810D0DFF82804BDF80010A2
:102A60008170DFF82004BDF8001089B2090AC17036
:102A7000022000F024FD012002E0002000E0002000
:102A800016BD000000E400E00CED00E002000120B3
:102A90007047F8B504000D001248008810F4C850C3
:102AA000B0F5C85F19D0FFF7C9FBDFF88C050078D7
:102AB0000600DFF88405407856EA0026DFF878053E
:102AC00000780700DFF87005407857EA0027002CEF
:102AD00000D02680002D00D02F800120F2BD000004
:102AE00010E000E02609002000000020000000089F
:102AF000F71D000838B504000D00E4B2FF2C34D0F7
:102B0000E4B21420DFF8181500FB0410006801F08F
:102B1000BDFE0121E4B21420DFF8042500FB0420EF
:102B2000406802F0C2FC2900C9B22000C0B200F027
:102B300021F8E4B21420DFF8E81400FB04100021AF
:102B400041810121E4B21420DFF8D42400FB0420E9
:102B5000006802F02DF90121E4B21420DFF8C0244E
:102B600000FB0420006802F0FEF831BD0000000008
:102B70000008014070B504000D002E00F6B2002ED2
:102B800001D101200600F6B2512E01DB50200600D3
:102B9000E4B21420DFF8881400FB041006746648C1
:102BA000E4B21421DFF8782401FB0421097C0A2215
:102BB0005143B0FBF1F0E4B21421DFF8642401FBCF
:102BC00004210881E4B21420DFF8541400FB04103F
:102BD0000089DFF868148880DFF860040021018034
:102BE000DFF858040021C180DFF850040021418043
:102BF000DFF84814E4B21420DFF8242400FB04209A
:102C0000006801F033FF70BD38B504000D00DFF837
:102C100030040580DFF828041821C170DFF8200493
:102C200003218170DFF81814E4B21420DFF8F023D8
:102C300000FB0420C06800F0ADFCE4B21420DFF813
:102C4000E01300FB041040892843E4B21421DFF8AC
:102C5000D02301FB0421488131BD2DE9F04104005E
:102C60000D001600ADB2002D08D0ADB2042D05D078
:102C7000ADB2082D02D0ADB20C2D50D1B6B2652E3A
:102C800001DB64200600E4B21420DFF8941300FB9B
:102C900004100089B6B2704307006420B7FBF0F05F
:102CA0008046DFF8A00360210180DFF8980301214E
:102CB0004180DFF89003A0F80680DFF88803002148
:102CC0000181ADB22800002806D0042805D00828CC
:102CD0000FD00C2818D022E021E0DFF86813E4B20E
:102CE0001420DFF83C2300FB0420006801F008FFFB
:102CF00015E0DFF85013E4B21420C94A00FB0420A9
:102D0000006801F045FF0AE0DFF83813E4B2142050
:102D1000C34A00FB0420006801F081FFFFE7BDE823
:102D2000F081C0B21421BE4A01FB00200089704727
:102D30000000000098080020401901005B090020F5
:102D4000F8B504000D001600E4B2002C03D1B4481D
:102D500090F83800040000F02BF8E4B2210089B2AA
:102D60000220FFF7C7FEAE48008EADB268430700F1
:102D70006420B7FBF0F0050040210220FFF744FF7C
:102D80002A0092B200210220FFF767FFF6B2022E5E
:102D900009DB80210220FFF737FF2A0092B20421CD
:102DA0000220FFF75AFF0121A04801F0DCFFF1BD2E
:102DB00080B5A348C0210180A1481821C170A04856
:102DC000032181709E49A04800F0E4FB01BD000092
:102DD0009C0800200C070020A008002065020008C5
:102DE0005556000810B50400FEF7DEFE00215FF026
:102DF000006002F00BFCFEF7E0FE03F06AFD01202C
:102E000010BD38B50400E4B2002C11D1002005003B
:102E1000EDB2062D08DAEDB286482818C07AEDB278
:102E20008A4968546D1CF3E700F07FFD012013E030
:102E300000F037FE00200500EDB2062D08DAEDB2F5
:102E40007C482818EDB28149695CC1726D1CF3E7BA
:102E5000062000F034FB012032BD0000F75D0008C1
:102E6000F51D000810B50400E4B2002C01D10020CB
:102E700007E001F0B3FC03498870012000F01FFB5C
:102E8000012010BD90060020F8B50400E4B2002C2B
:102E900011D16848C07A05006D480600EDB22B00DC
:102EA0009BB200223100002001F0FDF96048EDB234
:102EB0000580012024E05F48C07A05005D48007B62
:102EC0008DF8000001200700FFB2042F05DAFFB2E1
:102ED00000A8002139547F1CF6E7EDB22B009BB20D
:102EE000002200A9002001F0DEF95148EDB2058072
:102EF00001F057FAEDB2280080B200F0E0FA0120AC
:102F0000F2BD00005A0900204D0900200C80000687
:102F100038B50400E4B2002C0BD001F042FA454869
:102F2000C07A0500EDB2280080B200F0C8FA012096
:102F300000E0002032BD38B50400E4B2002C10D10E
:102F40003C48C07A00280AD03A48407B3949097B7E
:102F500050EA0125280080B200F008F801E000F0F6
:102F600048F8012032BD00005A09002030B587B072
:102F700004004FF47A750121082002F096FA3048D7
:102F8000082101802E48032181702D481821C1702D
:102F90002B49304800F0FEFA04A801F0C7FE2E4885
:102FA000ADB2A4B204FB05F190FBF1F0401EADF808
:102FB0001000681EADF8140004A9284801F056FD61
:102FC00000A801F0BFFE6020ADF800000120ADF8C0
:102FD0000200ADB2022095FBF0F0ADF8060000A9AA
:102FE0001E4801F01CFE01211C4801F0BCFE07B088
:102FF00030BD80B50021194801F0B5FE1048082108
:1030000001800F48032181700D484821C1700C498F
:10301000104800F0BFFA0021082002F046FA01BD76
:1030200018020020280900202A090020000800407A
:10303000460900200C0700209005002030080020E1
:1030400094080020E8070020000C01400808002038
:10305000180700200008014000A24A04000C0040AC
:1030600038B5DFF86804C0780002DFF8641408801F
:10307000DFF85C040088DFF8541409790818DFF8D9
:1030800050140880DFF844048078000601D58025BC
:1030900000E00025DFF83404407A012800F09A802F
:1030A000022800F09E80032800F0A280042800F08F
:1030B000A680052800F0AA80062800F0AE80072828
:1030C00000F0B280082800F0B680092800F0BA802D
:1030D0000A2800F012810B2800F0C2800C2800F0B2
:1030E00021810E2800F0B580122800F0C08013283E
:1030F00000F0C480142800F0C880152800F0CC80AF
:10310000162800F0D080172800F0DB80182800F087
:10311000DF80192800F0E3801B2800F0E7801C28DE
:1031200000F0F2801D2800F0F6801E2800F00181DA
:103130001F2800F00581202800F00981212800F0D7
:103140000D81222800F0B680242800F00E81252869
:1031500000F01281262800F01681272800F01A813D
:10316000282800F04F812A2800F01B812D2800F02C
:103170001F812E2800F023812F2800F0278130287E
:1031800000F02B81312800F02F81322800F03381AC
:10319000332800F03E81342800F04281352800F0C9
:1031A0004681362800F04A81372800F04E813928C0
:1031B00000F059813A2800F04F813B2800F05A81F5
:1031C0003C2800F05E81402800F06281412800F038
:1031D00066816FE12800C0B2FFF760F800200400AC
:1031E0006AE12800C0B2FDF78FF90020040063E116
:1031F0002800C0B2FDF7C9F9002004005CE12800F6
:10320000C0B2FDF798F90020040055E12800C0B2D3
:10321000FFF786F9002004004EE12800C0B2FFF756
:10322000E1FD0020040047E12800C0B2FDF720F9CD
:103230000020040040E12800C0B2FFF725F800207C
:10324000040039E12800C0B2FDF724F80020040092
:1032500032E12800C0B2FDF754F8002004002BE151
:103260002800C0B2FDF702FB0020040024E1280082
:10327000C0B2FDF733FB002004001DE12800C0B2FE
:10328000FDF7C4F90020040016E12800C0B2FDF7E4
:10329000F7F9002004000FE12800C0B2FDF722FA80
:1032A0000020040008E12800C0B2FFF7A0F80020C9
:1032B000040001E12800C0B2FDF70BFC002004006F
:1032C000FAE02800C0B2FFF7BEF800200400F3E0E7
:1032D0002800C0B2FFF78CF900200400ECE02800C1
:1032E000C0B2FFF7A3F900200400E5E02800C0B257
:1032F000FFF7D5F800200400DEE02800C0B2FFF799
:10330000E8F800200400D7E02800C0B2FFF70AF870
:1033100000200400D0E02800C0B2FFF737F90020F9
:103320000400C9E02800C0B2FFF79EF900200400A5
:10333000C2E02800C0B2FFF7EAF800200400BBE0BA
:103340002800C0B2FDF738F900200400B4E02800DE
:10335000C0B2FFF70CFA00200400ADE02800C0B2B4
:1033600002F0A9FB00200400A6E02800C0B202F091
:10337000C0FB002004009FE02800C0B202F0E3FB85
:103380000020040098E02800C0B202F0F5FB002005
:10339000040091E02800C0B2FFF77CF9002004008F
:1033A0008AE02800C0B2FFF7BCF90020040083E0E7
:1033B0002800C0B202F0DCFD002004007CE0280000
:1033C000C0B202F0ECFD0020040075E02800C0B29D
:1033D00002F012FD002004006EE02800C0B202F0EE
:1033E0002EFD0020040067E02800C0B202F04AFD74
:1033F0000020040060E02800C0B202F066FD00205A
:10340000040059E02800C0B202F05FF90020040077
:1034100052E02800C0B2FFF78DFA002004004BE014
:103420002800C0B2FFF7BEFA0020040044E02800E4
:10343000C0B2FFF7EAFA002004003DE02800C0B265
:10344000FFF7FCFA0020040036E02800C0B2FFF7C6
:10345000CBF9002004002FE02800C0B2FFF702FDE6
:103460000020040028E02800C0B2FFF7CAFC0020BA
:10347000040021E02800C0B2FFF706FD0020040090
:103480001AE02800C0B2FFF743FD0020040013E05B
:103490002800C0B2FFF74FFD002004000CE0002020
:1034A00004000A48007B0949C97A50EA0120094909
:1034B000088001E0002004002000C0B232BD0449B1
:1034C0000880054908800549087070470C070020EE
:1034D0004409002026090020460900207309002025
:1034E00010B50400DFF89802844208D101210420BD
:1034F00001F0EAFF0021042001F0E6FF49E0DFF8D7
:103500008402844208D10121082001F0DDFF00215E
:10351000082001F0D9FF3CE09B48844208D10121FA
:10352000102001F0D1FF0021102001F0CDFF30E08C
:103530009648844208D10121202001F0C5FF0021D6
:10354000202001F0C1FF24E09148844208D10121EC
:10355000402001F0B9FF0021402001F0B5FF18E044
:103560008C48844208D10121802001F0ADFF002168
:10357000802001F0A9FF0CE08748844209D1012195
:103580004FF4807001F0A0FF00214FF4807001F033
:103590009BFF10BDF0B5002700220023002400256A
:1035A000002691F803C01CF00F0C674691F803C089
:1035B0005FEACC6C03D591F802C05CEA070791F88A
:1035C00000C05FEA0C6C3AD0D0F800C065465FF0EE
:1035D000000C6346082B31D25FF0010C1CFA03FC8F
:1035E0006446B1F800C014EA0C0C6246A24223D132
:1035F0005FEA830C64465FF00F0C1CFA04FC66461D
:10360000B54317FA04FC5CEA050591F803C0BCF168
:10361000280F06D15FF0010C1CFA03FCC0F814C09F
:103620000AE091F803C0BCF1480F05D15FF0010C2E
:103630001CFA03FCC0F810C05B1CCBE70560B1F8B6
:1036400000C0BCF1FF0F3FDDD0F804C065465FF05D
:10365000000C6346082B36D25FF0010C13F1080E04
:103660001CFA0EFC6446B1F800C014EA0C0C624669
:10367000A24226D15FEA830C64465FF00F0C1CFA6D
:1036800004FC6646B54317FA04FC5CEA050591F8AC
:1036900003C0BCF1280F07D15FF0010C13F1080E35
:1036A0001CFA0EFCC0F814C091F803C0BCF1480F1E
:1036B00007D15FF0010C13F1080E1CFA0EFCC0F8E4
:1036C00010C05B1CC6E74560F0BD02000020936897
:1036D00089B20B4202D00123180001E00023180038
:1036E000C0B27047806880B2704702000020D36883
:1036F00089B20B4202D00123180001E00023180018
:10370000C0B27047C06880B2704789B2016170472B
:1037100089B241617047D2B2002A02D089B20161F8
:1037200001E089B24161704789B2C160704730B42D
:1037300000220F2311F00304E4B2A400A3401A00F6
:10374000C9B28B10154C54F823309343C9B28C1076
:10375000124D45F82430C9B28B10104C54F8233068
:10376000C0B211F00304E4B2A40010FA04F423433D
:10377000C9B28C10094D45F8243030BC70470000A8
:1037800000080140000C01400010014000140140FD
:1037900000180140001C01400020014008000140C9
:1037A000103A07D330B4B1E83810103AA0E8381016
:1037B000F9D230BC530724BFB1E80810A0E80810C4
:1037C00044BF51F8043B40F8043BD20724BF31F812
:1037D000022B20F8022B44BF0B7803707047083A85
:1037E00007D3B1E80810083A40F8043B40F804CB8E
:1037F000F7D25307E4E7000010B501214FF48050E1
:1038000001F044FE00215FF4800001F04EFE002133
:103810005FF4802001F049FEDFF8BC0B03218170CA
:10382000DFF8B40B4821C170DFF8AC0B4FF4006136
:103830000180DFF8A41BDFF8A40BFFF7ABFEDFF875
:10384000980B4FF480610180DFF88C1BDFF88C0B44
:10385000FFF7A0FEDFF8800B08210180DFF8781B5E
:10386000DFF87C0BFFF796FEDFF86C0B2021018060
:10387000DFF8641BDFF86C0BFFF78CFEDFF8580BEA
:10388000E0210180DFF8500B03218170DFF8480B45
:103890001821C170DFF8401BDFF8440BFFF77AFEF8
:1038A000DFF8340B10210180DFF82C0B032181702D
:1038B000DFF8240B1021C170DFF81C1BDFF8200B90
:1038C000FFF768FE1021DFF8180BFFF71EFF00203E
:1038D0000400E4B2042C1EDAE4B2DFF84C0C002140
:1038E0002154E4B20320DFF8441C00FB0410002143
:1038F0000170E4B20320DFF8341C00FB0410002147
:103900004170E4B20320DFF8241C00FB0410002106
:103910008170641CDDE7DFF8A40C00210170002039
:1039200003F010F903F0FCFA10BD80B5DFF8900C3D
:1039300003F002FBDFF8F80BDFF8F81B09780170E1
:10394000DFF8EC0BDFF8EC1B49784170DFF8E00B97
:10395000DFF8E01B89788170DFF8D40BDFF8D41B27
:10396000C978C170DFF8C80BDFF8C81B09798180FE
:10397000DFF8BC0B80880002DFF8B41B8880DFF81A
:10398000B00B8088DFF8AC1B49790818DFF8A01B62
:103990008880DFF89C0B202181801021DFF8400A0D
:1039A000FFF7B3FEDFF8900B00210180DFF8880BF2
:1039B0004FF482714180DFF8800B00218180DFF8B5
:1039C000780B4FF400714181DFF8640B40780028D8
:1039D00004D0DFF8640B0221C18003E0DFF8580B4C
:1039E0000021C180DFF8480B0078012804D1DFF8FE
:1039F000480B0121018103E0DFF83C0B002101812C
:103A0000DFF82C0B808802280FD0042812D0082859
:103A100015D0102818D020281BD040281ED0802870
:103A200021D0B0F5807F23D027E0DFF80C0B0021F8
:103A3000818122E0DFF8000B082181811DE0DFF8A1
:103A4000F80A1021818118E0DFF8EC0A1821818141
:103A500013E0DFF8E40A202181810EE0DFF8D80AC4
:103A60002821818109E0DFF8D00A3021818104E03A
:103A7000DFF8C40A38218181FFE7DFF8BC0A0021A2
:103A8000C181DFF8B40A07210182DFF8AC1ADFF840
:103A9000300B03F07DFA0121DFF8240B03F09EFACE
:103AA00001BDDFF8900ADFF8881A09780170DFF8A5
:103AB000840ADFF87C1A49784170DFF8780ADFF869
:103AC000701A89788170DFF86C0ADFF8641AC97897
:103AD000C170DFF8600ADFF8581A89880171DFF8D1
:103AE000540A70472DE9F84304000D0016001F002A
:103AF00000208146E4B2002C00F0AD80E4B2052C39
:103B000080F2A980E4B20320DFF8201A00FB041041
:103B100010F8030C002868D1E4B20320DFF80C1A77
:103B200000FB041010F8020C01285ED1E4B2012C55
:103B300006D059D3032C2DD017D3042C3FD053E0FB
:103B4000DFF8A80B28210170DFF8A00B00214170DD
:103B5000DFF8980B00218170DFF8900B0021C17015
:103B6000DFF8880B01F01EFD5DE0DFF8800B2821F7
:103B70000170DFF8780B00214170DFF8700B002135
:103B80008170DFF8680B0021C170DFF8600B01F075
:103B900009FD48E0DFF8540B09210170DFF84C0BF8
:103BA00000214170DFF8440B00218170DFF83C0BED
:103BB0000021C170DFF8340B01F0F4FC33E0DFF8D2
:103BC0002C0B17210170DFF8240B00214170DFF866
:103BD0001C0B00218170DFF8140B0021C170DFF88D
:103BE0000C0B01F0DFFC1EE01DE0E4B20320DFF867
:103BF0003C1900FB041010F8030C012813D1E4B2A7
:103C00000320DFF8281900FB041010F8020C01282B
:103C100009D10021DFF8C00B01F0A5F80021DFF881
:103C2000B80B01F0C5F8E4B20320DFF8001900FB7F
:103C3000041000F8035CE4B20320DFF8F01800FB86
:103C4000041000F8026CE4B20320DFF8E01800FB77
:103C5000041000F8017CE4B2012C06D027D3032C19
:103C600015D00BD3042C1AD021E0DFF86C074FF4E9
:103C700000610180DFF86407804618E0DFF858072C
:103C80004FF480610180DFF8540780460FE0DFF8D1
:103C9000480708210180DFF84807804607E0DFF881
:103CA000380720210180DFF83C078046FFE7EDB2AE
:103CB000002D02D0012D22D031E0F6B2012E19D113
:103CC00001208146FFB2012F08D1DFF8440B082103
:103CD0004171DFF804072821C1700FE0FFB2002F07
:103CE0000CD1DFF82C0B0C214171DFF8EC064821D8
:103CF000C17003E0DFF8E0064821C1700FE0DFF893
:103D0000D8061021C170F6B2012E03D1DFF8C80623
:103D10001821C170DFF8FC0A01210170FFE7DFF80C
:103D2000B80603218170DFF8B0164046FFF732FC79
:103D30005FFA89F9B9F1000F00F0C080E4B2012CFC
:103D400008D0C0F0BB80032C60D031D3042C00F02D
:103D50008980B3E00B210120FFF7E9FCDFF88C0933
:103D600028210170DFF8840900214170DFF87C0907
:103D700000218170DFF874090121C170DFF86C093E
:103D800001F010FC4FF4006001F0BCFFDFF8800A86
:103D90004FF400610160DFF8780A00210171DFF85B
:103DA000700A01218171DFF8680A01F053FF85E094
:103DB0000A210120FFF7BBFCDFF830092821017040
:103DC000DFF8280900214170DFF820090021817007
:103DD000DFF818090121C170DFF8100901F0E2FBDA
:103DE0004FF4806001F08EFFDFF8240A4FF4806109
:103DF0000160DFF81C0A00210171DFF8140A0121BB
:103E00008171DFF80C0A01F025FF57E00321002043
:103E1000FFF78DFCDFF8D40809210170DFF8CC082A
:103E200000214170DFF8C40800218170DFF8BC0870
:103E30000121C170DFF8B40801F0B4FB082001F0E3
:103E400061FFDFF8CC0908210160DFF8C409002117
:103E50000171DFF8BC0901218171DFF8B40901F0BB
:103E6000F9FE2BE005210220FFF761FCDFF87C085A
:103E700017210170DFF8740800214170DFF86C0829
:103E800000218170DFF864080121C170DFF85C084F
:103E900001F088FB202001F035FFDFF874092021B4
:103EA0000160DFF86C0900210171DFF8640901216C
:103EB0008171DFF85C0901F0CDFEFFE7BDE8F18319
:103EC0002DE9F04782B004000D0016000020804666
:103ED000E4B2032C03D0E4B2042C40F08680E4B2B8
:103EE0000320DFF8481600FB041010F8030C01282B
:103EF0000BD1E4B20320DFF8341600FB041010F8F5
:103F0000020C012801D1012080465FFA88F8B8F13F
:103F1000000F6AD0E4B2032C0AD1DFF8FC080121BB
:103F200041800820ADF80000DFF8B404070009E084
:103F3000DFF8E408012141802020ADF80000DFF81F
:103F4000A40407000121082001F0AFFA03208DF836
:103F5000020018208DF8030000A93800FFF71AFBB3
:103F6000DFF8B808ADB2B0FBF5F082461FFA8AFA66
:103F7000B6B206FB0AF081466420B9FBF0F00600F9
:103F8000DFF89C08A0F804A0DFF894080021018065
:103F9000DFF88C080021C180DFF88408002141800F
:103FA000DFF87C18DFF8300800F060FDDFF8680803
:103FB00060210180DFF86008C680DFF85C0800211E
:103FC0000181E4B2032C0BD1DFF84C18DFF80808AC
:103FD00000F025FE0021DFF8000800F0F7FEFFE703
:103FE0000121DFF8F40700F0BEFEBDE8F38738B525
:103FF00004000D00E4B2032C02D0E4B2042C1AD168
:10400000EDB2012D0AD10121DFF8CC0700F0D0FE7E
:104010000121DFF8C40700F0A6FE0CE0EDB2002D90
:1040200009D10021DFF8B00700F09DFE0021DFF884
:10403000A80700F0BDFE31BD38B50400E4B2012C84
:1040400006D022D3032C13D00AD3042C17D01CE0A3
:104050004FF40061DFF88403FFF737FB050014E03D
:104060004FF48061DFF87403FFF72FFB05000CE0CD
:104070000821DFF86C03FFF728FB050005E020218D
:10408000D848FFF722FB0500FFE72800C0B232BD89
:1040900038B504000D00E4B2012C06D045D3032C42
:1040A00025D013D3042C31D03FE0EDB2002D06D043
:1040B00001224FF40061C948FFF72DFB05E0002203
:1040C0004FF40061C548FFF726FB2EE0EDB2002D4E
:1040D00006D001224FF48061C048FFF71CFB05E0C9
:1040E00000224FF48061BD48FFF715FB1DE0EDB2E3
:1040F000002D05D001220821B948FFF70CFB04E090
:1041000000220821B648FFF706FB0EE0EDB2002DB5
:1041100005D001222021B348FFF7FDFA04E0002278
:104120002021B048FFF7F7FAFFE731BD80B5DFF88F
:104130000004C078DFF8EC160870DFF8F40380782C
:10414000002855D1DFF8E0060078012802D00228C7
:104150002ED04CE0DFF8D406807ADFF8D416087051
:10416000DFF8C806C07ADFF8CC160870DFF8C4069E
:10417000DFF8B816097B4170DFF8B806DFF8AC1637
:10418000497B8170DFF8AC06DFF8A016897BC1702F
:10419000DFF8A406DFF8A4160160DFF89006007CC3
:1041A000DFF89C160880DFF880060221017078E0B5
:1041B000DFF89006DFF8881609880180DFF88006AE
:1041C00000210180DFF87C060388DFF86826DFF82D
:1041D0007816DFF85C06007800F065F8DFF848062E
:1041E00001210170DFF858060021018059E058E0F4
:1041F000DFF834060078012802D002282ED050E0E3
:10420000DFF82806807ADFF828160870DFF81C0629
:10421000C07ADFF820160870DFF81806DFF80C16F1
:10422000097B4170DFF80C06DFF80016497B8170CE
:10423000DFF80006DFF8F415897BC170DFF8F805B8
:10424000DFF8F8150160DFF8E405007CDFF8F01511
:104250000880DFF8D4050221017022E0DFF8E405D0
:10426000DFF8DC1509880180DFF8D4050021018022
:10427000DFF8B00500780090DFF8C8050388DFF8A4
:10428000B425DFF8C415DFF8A805007800F0ACF815
:10429000DFF8AC0500210180DFF88C0501210170F9
:1042A000FFE7002002BD2DE9F84F04000D001600C5
:1042B0001F00A846BB465FF000095FF0000ABF4838
:1042C00000210170002002F03DFCDFF88005DFF8DE
:1042D000801501601FFA8BFBBBF1000F06D1B748B8
:1042E00020210170012002F02DFC05E0B3480121DE
:1042F0000170002002F026FCA2465FFA8AFABAF1A9
:10430000000F1ED010213648FFF702FA5FFA8AFA32
:10431000BAF1050F06DA5FFA8AFADAF100008019BD
:1043200000798146A5480078012803D14846C0B2EB
:1043300000F0BBF910212A48FFF7E7F9BAF1010AAA
:10434000DBE75846B0F1010B80B200281DD01021E8
:104350002348FFF7DDF999480078012807D198F83C
:10436000000000F0A2F9DFF8E4140968087018F101
:104370000108DFF8D8040068401CDFF8D01408609A
:1043800010211748FFF7C1F9DBE78C4800780128B6
:1043900005D18A4800210170002002F0D3FBBDE85E
:1043A000F18FDFF8B00440210170DFF8AC04007831
:1043B00001280FD1DFF8A4040088402804DBDFF8CF
:1043C000A0044021018005E0DFF89404DFF88C149C
:1043D000098801807047000094080020000C01400B
:1043E00000080140001001402DE9FB4F82B014008D
:1043F000039DBDF81000ADF80000002600279DF8D1
:1044000038806E4800210170002080B2402806DA12
:1044100080B2DFF83C1400224254401CF5E7DFF87C
:104420002C04DFF82C140160002002F08BFBBDF897
:104430000000002806D1614820210170012002F00F
:1044400081FB05E05D4801210170002002F07AFB4C
:104450009DF808000700FFB2002F1BD01021DFF8E5
:104460000404FFF755F9FFB2052F04DAFFB27842D2
:1044700000190079060051480078012803D1300066
:10448000C0B200F012F91021DFF8D803FFF73DF9B0
:104490007F1EE0E7002081465FFA88F8B8F1000F40
:1044A00006D0BDF800005FFA88F890FBF8F081466E
:1044B000CA465FFA8AFABAF1000F28D01021DFF855
:1044C000A403FFF725F9C3465FFA8BFBBBF1000F8E
:1044D00015D03A480078012806D1287800F0E5F890
:1044E000DFF86813096808706D1CDFF86003006866
:1044F000401CDFF858130860BBF1010BE4E7102102
:10450000DFF86003FFF701F9BAF1010AD1E72B48A0
:104510000078012805D1294800210170002002F00F
:1045200011FB05B0BDE8F08F5407002018080020EB
:104530007808002008080020C007002010B5DFF828
:1045400028030079DFF824130870C2484021017065
:10455000DFF81C03807800282DD1BF48007801289F
:1045600029D1BE480088402803DBBD484021018096
:1045700003E0BB48B94909880180AC48007CB049D8
:104580000880AA48007CB6490880B5480388B64A26
:10459000AA49B648007800F015F800200400E4B2FB
:1045A0003E2C08DAE4B2B3482018E4B2A349615CB7
:1045B0008170641CF3E7002010BD00005C0900203E
:1045C000003001402DE9F84F04000D0016001F00D7
:1045D000A846BB465FF000095FF0000AA64800212C
:1045E0000170002002F0AEFA1FFA8BFBBBF1000F46
:1045F00006D1A14820210170012002F0A3FA05E0B4
:104600009D4801210170002002F09CFAA2465FFA49
:104610008AFABAF1000F1ED010219248FFF778F8FD
:104620005FFA8AFABAF1050F06DA5FFA8AFADAF166
:1046300000008019007981468F480078012803D155
:104640004846C0B200F031F810218648FFF75DF807
:10465000BAF1010ADBE75846B0F1010B80B200283D
:1046600012D010217F48FFF753F8834800780128C3
:1046700003D100F015F888F8000018F101081021A6
:104680007848FFF742F8E6E77B480078012805D133
:10469000794800210170002002F054FABDE8F18F42
:1046A00080B5002000F001F802BD10B50400022121
:1046B000724802F0A5FC002803D100F092F800280F
:1046C000F5D0E4B2210089B26C4802F095FC0121DA
:1046D0006A4802F095FC002803D100F082F8002817
:1046E000F5D0664802F08AFCC0B210BD98080020E0
:1046F00038B50400E4B2012C06D069D3032C35D0C0
:104700001BD3042C4BD063E02000C0B2FFF794FC15
:104710005B490870E4B203205A4900FB041010F80A
:10472000010C002805D15648007890F0010054494A
:1047300008705348007805004AE02000C0B2FFF737
:104740007BFC4F494870E4B203204E4900FB041043
:1047500010F8010C002805D14948407890F001007C
:104760004749487046484078050031E02000C0B213
:10477000FFF762FC42498871E4B20320414900FB23
:10478000041010F8010C002805D13D48807990F004
:1047900001003B4988713A488079050018E0200003
:1047A000C0B2FFF749FC3649C871E4B2032035496D
:1047B00000FB041010F8010C002805D13048C07926
:1047C00090F001002E49C8712D48C0790500FFE71F
:1047D0002800C0B232BD0000000C0040264800781E
:1047E000704780B528480088401C27490880264823
:1047F00000884FF6FB71884207DB1F4810210170CB
:10480000012002F09FF9012000E0002002BD00001D
:10481000500800204E090020E80700204019010040
:10482000300800205D090020500900200C070020FE
:104830005E09002060080020E808002090050020A4
:10484000440900201A0900200E0700204C03002014
:10485000D0050020730900204F09002046090020E0
:104860001809002000080140680800205F090020A6
:1048700078080020900600205C09002000300140EC
:1048800054070020180800203209002010B5040049
:10489000DFF8DC0684420AD101214FF4006000F009
:1048A00013FE00214FF4006000F00EFEDDE0B4F1D5
:1048B000804F08D10121012000F015FE00210120C8
:1048C00000F011FED1E0DFF8AC06844208D10121EE
:1048D000022000F008FE0021022000F004FEC4E0E7
:1048E000DFF89406844208D10121042000F0FBFD8A
:1048F0000021042000F0F7FDB7E0DFF880068442D5
:1049000008D10121082000F0EEFD0021082000F070
:10491000EAFDAAE0DFF8DC06844208D1012110207C
:1049200000F0E1FD0021102000F0DDFD9DE0DFF84A
:10493000C806844208D10121202000F0D4FD0021C6
:10494000202000F0D0FD90E0DFF8B00684420AD1CC
:1049500001214FF4005000F0B7FD00214FF400504A
:1049600000F0B2FD81E0DFF8980684420AD101210F
:104970005FF4002000F0A8FD00215FF4002000F0AB
:10498000A3FD72E0DFF8F00684420AD101215FF452
:10499000801000F099FD00215FF4801000F094FD7C
:1049A00063E0DFF8D80684420AD101215FF40010E9
:1049B00000F08AFD00215FF4001000F085FD54E056
:1049C000DFF8BC06844208D10121402000F08BFDB5
:1049D0000021402000F087FD47E0DFF8A806844270
:1049E00008D10121802000F07EFD0021802000F010
:1049F0007AFD3AE0DFF8900684420AD101214FF4B3
:104A0000807000F070FD00214FF4807000F06BFDAD
:104A10002BE0DFF8EC0684420AD101215FF48030FC
:104A200000F052FD00215FF4803000F04DFD1CE0ED
:104A3000DFF8D00684420AD101215FF4003000F093
:104A400043FD00215FF4003000F03EFD0DE0DFF893
:104A5000B806844209D101215FF4802000F034FDC2
:104A600000215FF4802000F02FFD10BD002203889C
:104A70001A00DFF8FC34984212D0DFF880359842F3
:104A80000ED0B0F1804F0BD0DFF8E834984207D059
:104A9000DFF8E434984203D0DFF8E034984204D1E0
:104AA0004FF68F731A404B881A43DFF84835984207
:104AB00008D0DFF84435984204D04FF6FF431A403F
:104AC000CB881A4302808B8883850B880385DFF8A7
:104AD000A03498420FD0DFF8243598420BD0DFF88D
:104AE0002036984207D0DFF81C36984203D0DFF812
:104AF0001836984201D10B7A0386012383827047CE
:104B000070B4002300240022058C4FF6EF76354068
:104B10000584058C2C0085882A00058B2B0048F61F
:104B2000FF752B404FF6FF452B400D8853EA0523B8
:104B30004FF6DF752C400D8954EA05144D8854EA70
:104B40000514DFF82C54A84203D0DFF8C055A84262
:104B500017D14FF67F752C404D8954EA05144FF656
:104B6000BF752C408D8854EA05144FF6FF352A4056
:104B70004FF2FF752A408D8952EA8502CD8952EAAB
:104B8000850282800383CD880587048470BC7047CA
:104B900070B4002300240022058C4FF6FF663540D8
:104BA0000584058C2C0085882A00858B2B004FF608
:104BB0008F752B404FF6FC752B400D882B434FF61D
:104BC000FF552C400D8954EA05244D8854EA0524EC
:104BD000DFF89C53A84203D0DFF83055A84217D124
:104BE0004FF2FF752C404D8954EA05244FF6FF35EE
:104BF0002C408D8854EA05244EF6FF752A404DF668
:104C0000FF752A408D8952EA0512CD8952EA0512B4
:104C100082808383CD888587048470BC704770B49C
:104C2000002300240022058C4EF6FF7635400584D3
:104C3000058C2C0085882A00858B2B0048F6FF7593
:104C40002B404FF6FF452B400D8853EA05234DF6C8
:104C5000FF752C400D8954EA05344D8854EA05341B
:104C6000DFF80C53A84203D0DFF8A054A84205D1C6
:104C70004BF6FF752A408D8952EA85128280838324
:104C8000CD88A0F84050048470BC704738B504004B
:104C90000D00DFF8DC02844212D0DFF860038442AA
:104CA0000ED0B4F1804F0BD0DFF8C802844207D099
:104CB000DFF8C402844203D0DFF8C002844200D18E
:104CC000FFE7288800280AD12B89AA886988200054
:104CD00000F018F9E988200000F0BDF825E02888E8
:104CE00004280AD12B89AA886988200000F048F995
:104CF000E988200000F0B8F817E0288808280AD1D1
:104D00002B89AA886988200000F07CF9E9882000B6
:104D100000F0B4F809E02B89AA886988200000F027
:104D2000B5F9E988200000F0B2F831BD4FF6FF7107
:104D30008180002101800021C1800021418000216B
:104D40000172704700210180002141800021818093
:104D50000021C18000210181002141810021818148
:104D60000021C1817047C9B2002904D0028852F0E5
:104D70000102028004E002884FF6FE731A400280AE
:104D80007047D2B2002A03D083890B43838102E0AB
:104D900083898B438381704701858282704700221B
:104DA00003891A004FF68F731A400A430281704735
:104DB000C9B2002904D0028852F08002028004E0C7
:104DC00002884FF67F731A40028070470022838B5F
:104DD0001A004FF2FF731A4052EA01228283704791
:104DE000C9B2002904D0028852F00202028004E015
:104DF00002884FF6FD731A400280704789B200297D
:104E000004D0028852F00402028004E002884FF6C7
:104E1000FB731A400280704782884FF68F731A40E6
:104E2000828082880A438280704702894FF6F87335
:104E30001A40028102890A430281704702894FF6B3
:104E40007F731A40028102890A430281704781867A
:104E5000704701877047028B4FF6F3731A40028345
:104E6000028B0A4302837047028B4FF2FF331A40D2
:104E70000283028B52EA012202837047828B4FF633
:104E8000F3731A408283828B0A4382837047828B3A
:104E90004FF2FF331A408283828B52EA01228283CF
:104EA0007047808E7047808F704702000020138A01
:104EB0000B4202D00123180001E000231800C0B209
:104EC000704789B2CA430282704730B402000020A2
:104ED00000230024158A0D402B0095890D402C00DD
:104EE0009BB2002B05D0A4B2002C02D001252800D3
:104EF00001E000252800C0B230BC704789B2CA4327
:104F000002827047F0B400250024068C4FF6FE772D
:104F10003E400684068B3500068C34004FF60C7636
:104F2000354052EA03163543114EB0420ED0334E8F
:104F3000B0420BD0B0F1804F08D00E4EB04205D039
:104F40000D4EB04202D00D4EB04206D14FF6FD7666
:104F5000344051F00106344305E04FF6F576344015
:104F600051F00106344305830484F0BC704700000F
:104F7000002C01400004004000080040000C0040EC
:104F8000F0B4002600240025078C4FF6EF7C1CEAC5
:104F900007070784078B3E00078C3C000F013D008C
:104FA00040F6FF473E4056EA033656EA0226584F7F
:104FB000B8420ED0114FB8420BD0B0F1804F08D09C
:104FC000544FB84205D0544FB84202D0534FB84264
:104FD00006D14FF6DF773C4055F010073C4305E023
:104FE0004FF65F773C4051F010073C430683048442
:104FF000F0BC704700100040001400400034014035
:10500000004C0140F0B4002600240025078C4FF628
:10501000FF6C1CEA07070784878B3E00078C3C0067
:105020000F023D004FF60C773E4052EA03173E4315
:10503000374FB8420ED0354FB8420BD0B0F1804F49
:1050400008D0344FB84205D0334FB84202D0334F66
:10505000B84206D14FF6FF573C4055F480773C43A9
:1050600005E04FF2FF573C4051F480773C43868384
:105070000484F0BC7047000000500140005401401F
:1050800000180040001C004000200040F0B4002642
:1050900000240025078C4EF6FF7C1CEA07070784D6
:1050A000878B3E00078C3C000F033D0040F6FF4716
:1050B0003E4056EA022656EA0336154FB8420ED055
:1050C000124FB8420BD0B0F1804F08D0114FB84208
:1050D00005D0114FB84202D0104FB84206D14DF65C
:1050E000FF773C4055F480573C4305E047F6FF57B7
:1050F0003C4051F480573C4386830484F0BC7047A5
:10510000004001400044014000480140003401409B
:10511000002C01400004004000080040000C00404A
:1051200070470000DFF82C04006850F00100DFF841
:1051300024140860DFF820040068DFF82014084019
:10514000DFF814140860DFF80C040068DFF81014AE
:105150000840DFF800140860DFF8F803006830F456
:105160008020DFF8F0130860DFF8EC03006830F40B
:10517000FE00DFF8E4130860DFF8D803006830F0C1
:10518000A050DFF8D0130860DFF8D8035FF47F0188
:105190000160DFF8D403002101607047DFF8B41329
:1051A000096831F48031DFF8AC231160DFF8A41313
:1051B000096831F48021DFF89C2311600100B1F50A
:1051C000803F03D0B1F5802F09D011E0DFF88413C0
:1051D000096851F48031DFF87C23116008E0DFF8C2
:1051E0007413096851F4A021DFF868231160FFE708
:1051F000704738B50020009000240025312000F0D1
:1052000081F905000098401C00900098B0F5A06F4F
:1052100002D0EDB2002DF1D0312000F073F900285A
:1052200002D00120040001E0002004002000C0B2F0
:1052300032BD0022DFF820331B681A0032F47412EA
:1052400051EA00031A43DFF810331A607047DFF8A1
:105250001C13C0B2086070470021DFF8FC221268FE
:105260001100890889000143DFF8EC2211607047C2
:10527000DFF8E402006810F00C0070470021DFF84E
:10528000D8221268110031F0F0010143DFF8C82282
:10529000116070470021DFF8C0221268110031F45C
:1052A000E0610143DFF8B022116070470021DFF8B0
:1052B000A8221268110031F4605151EAC001DFF8F0
:1052C000982211607047DFF8A81208607047F0B5A7
:1052D00000210022002300240025002600275FF083
:1052E000000CDFF874E2DEF800E01EF00C0E7146F0
:1052F0008E46BEF1000F06D0BEF1040F08D0BEF1FD
:10530000080F0AD062E0DFF870E2C0F800E061E068
:10531000DFF868E2C0F800E05CE0DFF83CE2DEF8CD
:1053200000E01EF4701E7246DFF82CE2DEF800E0AA
:105330001EF4803E7346920C0D2A01D0921C02E0AE
:105340005FF0060E7246002B06D1DFF834E20EFB4A
:1053500002FEC0F800E038E0DFF80CE2DEF800E022
:105360001EF4803E7546DFF800E2DEF800E01EF035
:105370000F0E1EF1010E7646002D08D1DFF8FCE17C
:10538000BEFBF6FE02FB0EFEC0F800E01DE0DFF8FB
:10539000D8E1DEF800E0CEF3031E1EF1010E7746E1
:1053A000DFF8C4E1DEF800E0CEF3032E1EF1020EBA
:1053B000F446DFF8C8E1BEFBF7FE0CFB0EFEBEFBB9
:1053C000F6FE02FB0EFEC0F800E003E0DFF8A8E105
:1053D000C0F800E0DFF880E1DEF800E01EF0F00E3B
:1053E00071460909DFF89CE111F80EE07446D0F827
:1053F00000E03EFA04FEC0F804E0DFF85CE1DEF80D
:1054000000E01EF4E06E7146090ADFF878E111F859
:105410000EE07446D0F804E03EFA04FEC0F808E05E
:10542000DFF834E1DEF800E01EF4605E7146C90A80
:10543000DFF850E111F80EE07446D0F804E03EFACF
:1054400004FEC0F80CE0DFF810E1DEF800E01EF426
:10545000404E7146890BDFF830E111F80EE07446DA
:10546000D0F80CE0BEFBF4FEC0F810E0F0BDC9B20D
:10547000002905D0454A12680243444B1A6004E0F3
:10548000424A12688243414B1A607047C9B20029F0
:1054900005D03F4A126802433D4B1A6004E03C4A83
:1054A000126882433A4B1A607047C9B2002905D08E
:1054B000384A12680243374B1A6004E0354A1268D2
:1054C0008243344B1A607047C9B2002905D0324A72
:1054D00012680243304B1A6004E02F4A126882437C
:1054E0002D4B1A607047C9B2002905D02B4A1268AB
:1054F00002432A4B1A6004E0284A12688243274B71
:105500001A60704710B40100002200230020C9B2C5
:105510004C09E4B22200012A03D10E4C2468230076
:1055200008E0022A03D1134C2468230002E01C4C3B
:1055300024682300C9B211F01F04220033FA02F4D8
:10554000E40702D50124200001E000242000C0B2BD
:1055500010BC704700100240041002400000FFF031
:10556000FFFFF6FE081002402C100240600042428D
:10557000D80042422010024000127A0040787D019B
:1055800000093D001C0300205003002014100240BD
:10559000181002401C1002400C1002401010024073
:1055A00024100240F0B4002300210F22C478002C04
:1055B00020D0214C246814F4E064D4F5E064240A7B
:1055C0002300D3F104042100DA4044788C40230006
:1055D0008478144023431B010478184D63550478E4
:1055E0006411174D0126077817F01F07BE4045F8D4
:1055F000246009E004786411124D0126077817F041
:105600001F07BE4045F82460F0BC70470E4A0A40B0
:1056100002430E4B1A607047042806D10C490968F2
:1056200051F004010A4A116005E00949096831F0A6
:105630000401074A116070470CED00E000E400E04F
:1056400000E100E080E100E080FFFF1F08ED00E0E6
:1056500010E000E0704780B5FCF7A6FADFF890058F
:10566000FCF7ACF9FCF7D0FC0821DFF88805FEF761
:105670004CF85FF08070FCF7A1F9DFF87C050A2197
:1056800001800122DFF8700501886420FDF758FBD6
:10569000DFF868051E210170DFF86005017889B226
:1056A0000020FDF727FADFF8580500210180DFF818
:1056B0005005028804210020FDF7CFFA00F013FE08
:1056C00000F0C5F8FCF779FA01BD10B50400E4B2AA
:1056D000002C36D1FFF7BFFFDFF82805C07ADFF8CE
:1056E00018150880DFF810050088DFF81815097B09
:1056F00050EA0120DFF800150880DFF80805407B3C
:10570000DFF8FC140880DFF8F8040088DFF8F414F0
:10571000897B50EA0120DFF8E8140880DFF8E40410
:10572000C07B00F087FADFF8DC04007C012804D19C
:105730005FF40000FCF734F903E05FF40000FCF7CD
:105740003DF9012010BD10B50400E4B2002C3AD19F
:105750005FF40000FCF740F9002812D0DFF8A8043D
:1057600064210180DFF8A004028800210220FDF7F7
:1057700074FADFF88C04028804210020FDF76DFA2A
:1057800008E000F022F8DFF870040288002102200F
:10579000FDF763FAFCF708FA0020FCF78DF9012009
:1057A00000F06CF9FCF701FC0821DFF84804FDF774
:1057B000ACFF5FF08070FCF701F94FF48060FCF7FC
:1057C000EFF8FCF7FAF9012010BD80B55FF4002076
:1057D000FCF702F9002804D0DFF8240464210180DA
:1057E00003E0DFF81C0400210180DFF814040288C4
:1057F00004210020FDF731FA01BD10B50400E4B228
:10580000002C22D1FCF7D0F9002000F037F9DFF8A6
:10581000F403C07A012801D1FCF7F6FBDFF8E403BA
:10582000007B012808D10821DFF8C803FDF770FFCD
:105830005FF08070FCF7B4F80020FCF73DF94FF4FE
:105840008060FCF7BBF8FCF7B8F9012010BD80B50B
:10585000FCF7AAF9DFF8B403FFF718F8DFF8B00394
:10586000FFF714F801214FF40060FFF70FFE01214C
:105870000220FFF71AFE01210420FFF707FEDFF8E0
:1058800094030FF21511C0F8AC10DFF88C031B2144
:105890000170DFF8840300214170DFF87C030121EF
:1058A0008170DFF874030121C170DFF86C03FFF72A
:1058B00079FE01220021DFF85403FFF76DFADFF8CB
:1058C0005C0308210180DFF8540300214180DFF8E8
:1058D0004C0301218180DFF844030021C180DFF8FF
:1058E0003C0300210181DFF83413C848FFF7CEF9EB
:1058F0005021C648FFF753FA0421C448FFF795FA30
:105900000121C248FFF77AFA2021C048FFF784FA44
:105910008021BE48FFF792FAC1484FF6FF7181809F
:10592000BF4800210180BE480021C180BC48002141
:105930004180BB49B648FFF799F800224FF6FF7146
:10594000B348FFF729FAB54800210180B348002188
:105950004180B24801218180B0480021C180AF4818
:1059600000210181AD49AA48FFF790F90121A8481B
:10597000FFF736FA0021A648FFF711FA0721A448DD
:10598000FFF753FA8021A248FFF758FA0020FCF7EE
:1059900093F8FCF712F901BD80B508219B48FFF789
:1059A00094FA01284BD108219848FFF7A7FA4FF441
:1059B00000619648FFF779FA012804D14FF400619D
:1059C0009248FFF77EFA9748007800280DD190485A
:1059D000FFF767FA944948808C48FFF764FA9249C8
:1059E000088090480121017029E08948FFF759FAA1
:1059F000ADF802008548FFF756FAADF800000098B0
:105A000089490968884207D200988749096849424C
:105A1000891E0818009005E0009883490968401A1B
:105A2000401E009081481021009A0023FCF7FAF8EC
:105A300000900098FCF740F87A480021017002219C
:105A40007248FFF742FA012803D102216F48FFF79D
:105A500055FA04216D48FFF738FA012803D10421D3
:105A60006A48FFF74BFA10216848FFF72EFA012821
:105A700003D110216548FFF741FA01BD10B50400BC
:105A8000E4B2002C02D0E4B2012C13D1FCF78CF864
:105A90002100C9B25D48FFF766F92100C9B25C4830
:105AA000FFF761F92200D2B208215848FFF769F9DF
:105AB000FCF783F810BD10B582B00400E4B2002CEE
:105AC00015D0FCF73EF8009059489DF8031041713D
:105AD00057489DF80210017155489DF80110C1709A
:105AE00053489DF8001081700420FDF7E8FC012068
:105AF00016BD10B50400E4B2002C0CD14148C07AA8
:105B00004049097B50EA01203D4908803C48008813
:105B100000F010F80CE046483949098889B2090AB2
:105B2000C17043483649098881700220FDF7C7FCDF
:105B3000012010BD10B50400220092B20421002003
:105B4000FDF78BF810BD10B50400E4B2002C08D1AD
:105B500008212848FDF7DCFD5FF08070FBF720FF8F
:105B600008E008212348FDF7C0FD31498870012075
:105B7000FDF7A5FC012010BD10B50400E4B2002C17
:105B800008D108211B48FDF7C0FD5FF08070FBF7CE
:105B900015FF08E008211748FDF7A7FD2449887084
:105BA0000120FDF78CFC012010BD10B50400E4B20B
:105BB000002C12D11348C07A00F03CF84FF48060FA
:105BC000FBF70AFF002811D05FF40000FBF704FF89
:105BD00000280BD1FFF7F9FD08E002210548FDF789
:105BE00084FD134988700120FDF769FC012010BD78
:105BF00000048000000801400E0900204B0900202D
:105C00000C0900200C07002028090020002C01406E
:105C10000004004000000020980800203C080020FC
:105C2000300800204A0900209008002000D088C3D6
:105C30009006002010B50400E4B2002C04D05FF4FC
:105C40000020FBF7ADFE03E05FF40020FBF7B6FE9B
:105C500010BD000000212D4A11008279002A36D0A3
:105C60002A4A126803689A43284B1A60284A126825
:105C700003689A43264B1A60027951180A68036830
:105C80001A430A60234A126803689A43214B1A6038
:105C9000214A126803689A431F4B1A604279102AFE
:105CA0000CD11C4A126803681A431A4B1A601A4A2C
:105CB000126803681A43184B1A600EE0134A110069
:105CC000427951180A6803681A430A6005E00279AC
:105CD00051180A6803689A430A607047010000205F
:105CE00000220A4B1B680B401A000C4B1B680B422E
:105CF00004D0002A02D00123180001E0002318007C
:105D0000C0B27047054908607047000000040140B8
:105D100004040140080401400C0401401404014043
:105D200010F00702BE4B1B6819004FF6FF03194025
:105D3000BC4B53EA02231943B94B1960704780B535
:105D4000FBF732FF01211920FFF7A0FB4FF4C060E1
:105D5000FFF7E6FFB44817210170B34800214170F6
:105D6000B14800218170B0480021C170AE48FFF7F2
:105D700019FC032000F06CF902220A216420FCF7D0
:105D8000DFFFAA4814210170A848017889B20020D9
:105D9000FCF7B0FEA64800210180A6480021018042
:105DA000A54800210180A548002101800121002093
:105DB000FCF72AFF02210020FCF726FF0421002027
:105DC000FCF722FF08210020FCF71EFF9C4832212F
:105DD00001809B48028800210220FCF73EFF994881
:105DE000322101809748028804210220FCF735FF08
:105DF000FBF7E3FE01BD704710B50400E4B2002CD0
:105E00000ED19148C07A9049097B50EA0120884917
:105E100008808748028800210020FCF71EFF0CE064
:105E20008A488349098889B2090AC170874880492C
:105E3000098881700220FDF742FB012010BD10B5DA
:105E40000400E4B2002C0ED17F48C07A7E49097B61
:105E500050EA012077490880764802880421002012
:105E6000FCF7FBFE0CE079487249098889B2090AFF
:105E7000C17076486F49098881700220FDF71FFBC9
:105E8000012010BD10B50400E4B2002C0ED16E4804
:105E9000C07A6D49097B50EA01206749088066484D
:105EA000028808210020FCF7D8FE0CE06748624910
:105EB000098889B2090AC17064485F4909888170FC
:105EC0000220FDF7FCFA012010BD10B50400E4B279
:105ED000002C0ED15C48C07A5B49097B50EA012056
:105EE00056490880554802880C210020FCF7B5FE71
:105EF0000CE056485149098889B2090AC1705348D3
:105F00004E49098881700220FDF7D9FA012010BDA1
:105F100038B504000D00E4B2E00707D54448058019
:105F20004348028800210020FCF797FEE4B2A00756
:105F300007D5404805803F48028804210020FCF72F
:105F40008CFEE4B2600707D53B4805803A480288DA
:105F500008210020FCF781FEE4B2200707D537486E
:105F60000580364802880C210020FCF776FE31BD02
:105F700070B50400E4B2002C0FD13348C07A05009C
:105F80003148007B3049497B50EA0120060031004E
:105F900089B22800C0B2FFF7BBFF012070BD38B541
:105FA0000400E4B2002C32D12748C07A0500EDB2DB
:105FB000002D02D10120050004E0EDB2512D01DBDE
:105FC0005020050019480078EDB2854226D01748C8
:105FD00005702900C9B20020FCF7CCFD14480288E6
:105FE00000210020FCF739FE12480288042100201D
:105FF000FCF733FE1048028808210020FCF72DFE34
:106000000E4802880C210020FCF727FE06E00F480E
:106010000649097881700120FDF751FA012032BD4F
:106020000CED00E00000FA05980800204C09002063
:106030001009002012090020140900201609002070
:10604000280900202A0900200C07002090060020C3
:1060500010B50400FBF7A8FDFBF7D6FFFBF7EAFF3E
:10606000DFF8680740210180DFF860071821C17060
:10607000DFF8580703218170DFF85017DFF8500769
:10608000FDF788FADFF8440780210180DFF83C172C
:10609000DFF83C07FDF77EFAE4B2032C30D1DFF8DD
:1060A0002C0701210180DFF824071821C170DFF8D7
:1060B0001C0703218170DFF81417DFF81807FDF7BC
:1060C00069FADFF8080702210180DFF80017DFF81E
:1060D0000407FDF75FFADFF8F40604210180DFF81A
:1060E000EC16DFF8F006FDF755FADFF8E0060821B8
:1060F0000180DFF8D816DFF8DC06FDF74BFA18E070
:10610000DFF8C8060F210180DFF8C0061021C1703A
:10611000DFF8B80603218170DFF8B016DFF8B406A7
:10612000FDF738FAFCF778F8DFF8AC06DFF8AC16C4
:10613000C163DFF898064FF440710180DFF88C06E8
:1061400003218170DFF884060421C170DFF87C161A
:10615000DFF88006FDF71EFADFF884064FF4407181
:106160000160DFF87C0600210171DFF874060C2164
:106170004171DFF86C0601218171DFF86406FFF7D9
:1061800069FDFBF71AFD10BD80B5DFF858060088E1
:1061900010F4C850B0F5C85F13D0DFF830064FF4E4
:1061A00000710180DFF8240603218170DFF81C06EE
:1061B0000421C170DFF81416DFF81806FDF7EAF9BC
:1061C00007E0DFF8080603218170DFF800064821A8
:1061D000C170DFF8F8054FF480610180DFF8EC153D
:1061E000DFF8EC05FDF7D6F9DFF8F805008810F4C4
:1061F000C850B0F5C85F0FD0DFF8D00540F22F418E
:106200000180DFF8C8051021C170DFF8C015DFF884
:10621000C405FDF7BFF907E0DFF8B0050321817081
:10622000DFF8A8051021C170DFF8A0050821018062
:10623000DFF89815DFF89C05FDF7ACF90821DFF8C9
:106240009405FDF765FADFF89C05008810F4C85046
:10625000B0F5C85F04D00821DFF87805FDF758FADB
:10626000DFF8680510210180DFF86015DFF8780598
:10627000FDF790F9DFF8540520210180DFF84C1577
:10628000DFF86405FDF786F900F04DFDFBF78CFCA7
:10629000FBF7C2FFDFF84005DFF84015C163DFF808
:1062A0004405008810F4C850B0F5C85F18D0092123
:1062B0000020FDF73CFADFF828054FF4007101607B
:1062C000DFF81C0500210171DFF814050C21417174
:1062D000DFF80C0501218171DFF80405FFF7BAFC36
:1062E000FBF76BFC01BD80B5DFF8E00440210180C5
:1062F000DFF8D8041821C170DFF8D00403218170C1
:10630000DFF8C814DFF8C804FDF744F9DFF8BC046F
:1063100002210180DFF8B414DFF8B804FDF73AF980
:10632000DFF8A80440210180DFF8A0042821C17013
:10633000DFF89814DFF89C04FDF72CF9DFF88C04E3
:106340001021C170DFF8840408210180DFF87C147B
:10635000DFF88004FDF71EF9DFF8700420210180CA
:10636000DFF86814DFF86C04FDF714F9DFF85C045B
:106370004821C170DFF8540401210180DFF84C147A
:10638000DFF85004FDF706F9DFF840044FF48861A8
:106390000180DFF83814DFF83C04FDF7FBF8DFF884
:1063A0002C0404210180DFF82414DFF82804FDF711
:1063B000F1F8DFF818040421C170DFF810044FF47D
:1063C00000710180DFF80414DFF80804FDF7E2F83B
:1063D000FBF7EAFBFBF720FF09210020FDF7A7F9F7
:1063E000DFF8FC034FF400710160DFF8F4030021D3
:1063F0000171DFF8EC030C214171DFF8E4030121A6
:106400008171DFF8DC03FFF725FCFBF7D6FB01BD4C
:106410002DE9F04104000D0000208046E4B2002C7C
:106420001DD0E4B2012C1AD0E4B2022C17D0E4B291
:10643000032C14D0E4B2042C11D0E4B2052C0ED0FD
:10644000E4B2062C0BD0E4B2072C08D0E4B2082C3E
:1064500005D0E4B2092C02D0E4B20A2C47D1E4B250
:106460000C20DFF8881300FB0410C572EDB2280081
:1064700000280AD002280ED003280FD0042810D0FC
:10648000052811D0062812D002E00020070016E0EF
:106490000420070013E02820070010E04820070030
:1064A0000DE0142007000AE01020070007E0182084
:1064B00007002000C0B200F05DF8012019E0E4B24E
:1064C0000C20CA4900FB04108088C0490880E4B24F
:1064D0000C20C64900FB041000680600BB48C770CA
:1064E000BA4803218170B9493000FDF753F840469E
:1064F000C0B2BDE8F08170B4040000252800E4B209
:10650000002C1DD0E4B2012C1AD0E4B2022C17D01A
:10651000E4B2032C14D0E4B2042C11D0E4B2052C64
:106520000ED0E4B2062C0BD0E4B2072C08D0E4B2B3
:10653000082C05D0E4B2092C02D0E4B20A2C16D102
:10654000E4B20C25A94E05FB04656D7A0D70E4B22A
:106550000C25A64E05FB0465AD7A1570E4B20C253A
:10656000A24E05FB0465ED7A1D7001252800C0B21E
:1065700070BC704738B5040001200500E4B20C205F
:106580009A4900FB0410417A89B2E4B20C20974A80
:1065900000FB0420007AFCF7ADFAE4B20C2093492A
:1065A00000FB04108188E4B20C20904A00FB042018
:1065B000007AFCF729FB2800C0B232BD70B5040098
:1065C0000D0000200600EDB2002D02D0EDB2012D2D
:1065D00032D1E4B2002C1DD0E4B2012C1AD0E4B2C6
:1065E000022C17D0E4B2032C14D0E4B2042C11D046
:1065F000E4B2052C0ED0E4B2062C0BD0E4B2072C8A
:1066000008D0E4B2082C05D0E4B2092C02D0E4B2E0
:106610000A2C11D12A00D2B2E4B20C20734900FB3B
:1066200004108188E4B20C20704B00FB0430006839
:10663000FDF771F8012006003000C0B270BD10B542
:106640000400E4B2002C1DD0E4B2012C1AD0E4B254
:10665000022C17D0E4B2032C14D0E4B2042C11D0D5
:10666000E4B2052C0ED0E4B2062C0BD0E4B2072C19
:1066700008D0E4B2082C05D0E4B2092C02D0E4B270
:106680000A2C0ED1E4B20C20584900FB041081887A
:10669000E4B20C20554A00FB04200068FDF715F811
:1066A00000E0022010BD10B50400E4B2002C1DD0A3
:1066B000E4B2012C1AD0E4B2022C17D0E4B2032CBD
:1066C00014D0E4B2042C11D0E4B2052C0ED0E4B204
:1066D000062C0BD0E4B2072C08D0E4B2082C05D06D
:1066E000E4B2092C02D0E4B20A2C0ED1E4B20C20A0
:1066F0003E4900FB04108188E4B20C203B4A00FBB9
:1067000004200068FCF7F1FF00E0022010BDF8B59E
:1067100004000D00160001200700F6B2652E01DB13
:1067200064200600E4B2002C1DD0E4B2012C1AD083
:10673000E4B2022C17D0E4B2032C14D0E4B2042C3F
:1067400011D0E4B2052C0ED0E4B2062C0BD0E4B28A
:10675000072C08D0E4B2082C05D0E4B2092C02D0F2
:10676000E4B20A2C2ED1E4B20C20204900FB041024
:106770004572E4B20C201D4900FB04108672E4B29D
:106780000C201A4900FB0410417AE4B20C20174A8D
:1067900000FB0420007AFCF7EDF9E4B20C20134969
:1067A00000FB0410827A92B2E4B20C200F4900FB85
:1067B0000410C188E4B20C200C4B00FB0430007ABA
:1067C000FCF74BFA3800C0B2F2BD0000940800207C
:1067D000000C01400008014000000020310E0008BC
:1067E000500800202609002000100140540100201C
:1067F00010B5DFF8E800C079062803D100F069F889
:10680000040010E0DFF8D400C079022804D0DFF8DB
:10681000CC00C079032803D100F01FF8040002E087
:1068200000F0FAFB0400DFF8B8000078002811D06F
:10683000DFF8B00002210170DFF8A800DFF8A8102F
:1068400009784170DFF8A400008801F0ADF8244811
:10685000002101702000C0B210BD25480222027044
:1068600023480522427000200100C9B20C2908DA31
:10687000C9B21F480818C9B21F4A8A5C8270491CF5
:10688000F3E700200100C9B2092908DAC9B21848A3
:106890000818C9B2194A8A5C8273491CF3E70020C0
:1068A0000100C9B23E2908DAC9B20E480818C9B2B7
:1068B0000F4A8A5C8270491CF3E70E480822028066
:1068C0000A480822028006480A4A128802700020FC
:1068D00070470B4801210170012070470C07002010
:1068E0007309002090060020570900204409002069
:1068F000500600204609002000C300080CC3000811
:106900007109002010B50024DFF82C05FCF7E8FD24
:10691000DFF82805FCF7E4FDDFF82405FCF7E0FDCF
:10692000DFF82005FCF7DCFDDFF81C05FCF7D8FDDF
:10693000DFF8180500F000FBDFF8140500F0FCFAA2
:1069400001F055F800F04BFA0400E4B2002C39D104
:10695000DFF800054FF480710180DFF8F8040321AF
:106960008170DFF8F0041021C170DFF8E814DFF85F
:10697000D004FCF70FFE42F2107000F079F801F03D
:1069800017FA4FF4FA7000F073F801F06EF84FF454
:106990008071DFF8AC04FCF7B8FE01F071F801F08B
:1069A0005BFA00F018F800F06DF800F084F800F0E1
:1069B00099F800F0B0F801F0CAF801F037F900F0EA
:1069C000B2F907E000F05EF800F08CF8012000F06A
:1069D000D7F8FEE710BD80B500214FF48050FEF7D8
:1069E00055FD00215FF48000FEF75FFD00215FF49C
:1069F0008020FEF75AFDDFF85C0403218170DFF888
:106A000054044821C170DFF84C044FF40061018048
:106A1000DFF84014DFF82404FCF7BCFDDFF8340491
:106A20004FF480610180DFF82C14DFF81004FCF7CC
:106A3000B1FDDFF8200408210180DFF81814DFF829
:106A4000F803FCF7A7FDDFF80C0420210180DFF834
:106A50000414DFF8EC03FCF79DFDDFF8F803E021F8
:106A60000180DFF8F013DFF8D003FCF793FD01BDE0
:106A700001B40098002803D00098401E0090F8E769
:106A800001B0704780B5DFF8CC0308210180DFF842
:106A9000C40303218170DFF8BC031021C170DFF84B
:106AA000B413DFF89C03FCF775FD0821DFF89003B1
:106AB000FCF72BFE01BD80B5DFF8980301210180B2
:106AC000DFF8900303218170DFF888031021C17083
:106AD000DFF88013DFF86803FCF75CFD002000F0AE
:106AE00031F801BD80B5DFF86C0302210180DFF8C9
:106AF000640303218170DFF85C031021C170DFF8AB
:106B00005413DFF83C03FCF745FD0221DFF83003A6
:106B1000FCF7FEFD01BD80B5DFF8380304210180DC
:106B2000DFF8300303218170DFF828031021C170E2
:106B3000DFF82013C248FCF72DFD0421C048FCF704
:106B4000E7FD01BD10B50400E4B2012C04D0012121
:106B5000BB48FCF7DDFD03E00121B948FCF7D5FD9A
:106B600010BD10B50400E4B2012C04D00821B448D3
:106B7000FCF7CEFD03E00821B148FCF7C6FD10BDCF
:106B800010B50400E4B2012C04D00221AC48FCF79B
:106B9000BFFD03E00221AA48FCF7B7FD10BD10B508
:106BA0000400E4B2012C04D00421A548FCF7B0FD98
:106BB00003E00421A248FCF7A8FD10BD80B5012028
:106BC000FFF7C0FFA4480021017001BD80B500207F
:106BD000FFF7B8FFA0480121017001BD80B5102169
:106BE0009748FCF795FD5FF44030FFF741FF102117
:106BF0009348FCF78AFD01BD10B54FF480618F48C2
:106C0000FCF763FD0400E4B2002C03D00020FFF782
:106C1000B7FF02E00120FFF7B3FF10BD10B54FF43E
:106C200000618648FCF751FD0400E4B2002C03D05B
:106C30000020FFF7B4FF02E00120FFF7B0FF10BD16
:106C400038B58648007800284CD1824802218170EE
:106C500080484821C1707F484FF4004101807D4940
:106C60007648FCF797FC7B484FF4804101807949D6
:106C70007248FCF78FFC77484FF40051018075494A
:106C80006E48FCF787FC73484FF4805101807149CE
:106C90006A48FCF77FFC4FF400416848FCF715FD9B
:106CA00004004FF480416548FCF70FFD05004FF4E8
:106CB00000516248FCF709FDE10011F00801AA004B
:106CC00012F004021143400010F0020050EA0104E7
:106CD0004FF480515948FCF7F8FC10F001002043B4
:106CE0005E4908705D48007832BD10B50124FFF799
:106CF000A7FFC0B20E280ED0C0B20D280BD0C0B274
:106D00000A2808D0C0B20C2805D0C0B20B2802D087
:106D1000C0B2052802D101210C0001E000210C00C5
:106D20002000C0B210BD80B54A48202101804948EA
:106D30000221817047481021C17046494048FCF744
:106D400029FC20213E48FCF7E3FC47F23050FFF7D6
:106D50008FFE20213A48FCF7D8FC47F23050FFF76D
:106D600087FE01BD38B5002410213348FCF7D0FC64
:106D70000025EDB2022D1FDA0221344800F040F95F
:106D8000002803D1FDF72DFD0028F5D0F8212F486C
:106D900000F032F901212D4800F032F9002803D12A
:106DA000FDF71FFD0028F5D0284800F027F9EDB2C7
:106DB0002B4968546D1CDCE729480078002803D172
:106DC00027484078F82801D00120040010211A48F3
:106DD000FCF79BFCFFF7A7FF2000C0B232BD38B51F
:106DE000FFF783FF04000025E4B2002C1ED0FFF75C
:106DF000F2FDFCF701FD1B4801210170194801213A
:106E0000417018480121817016480921C170154848
:106E100000210171134880214171FCF786FDFFF7C5
:106E2000A1FF002804D00220050001E00120050098
:106E30002800C0B232BD000000080140000C014033
:106E400000100140001401400018014000300140D2
:106E500000380040940800206203002054090020FC
:106E60005A0300200808002010B5FFF7E9FE0400CF
:106E70000120FFF794FE5FF47020FFF7F9FD012079
:106E8000FFF77EFE5FF47020FFF7F2FD0120FFF7B1
:106E900059FE5FF47020FFF7EBFD0020FFF77FFE47
:106EA0000020FFF76DFE0020FFF74CFE5FF470201E
:106EB000FFF7DEFD200703D50120FFF752FE02E0B9
:106EC0000020FFF74EFE600703D50120FFF767FEA5
:106ED00002E00020FFF763FEA00703D50120FFF7C3
:106EE0004FFE02E00020FFF74BFEE00703D5012034
:106EF000FFF728FE02E00020FFF724FE5FF4000009
:106F0000FFF7B6FD0120FFF72CFE0020FFF747FE3C
:106F10000020FFF735FE0020FFF714FE10BD000033
:106F200003480121017003480121017000207047CE
:106F30004F0900205009002010B504002448844265
:106F40000AD101214FF48050FEF7BEFA00214FF420
:106F50008050FEF7B9FA1AE01E4884420AD1012196
:106F60004FF48040FEF7BFFA00214FF48040FEF757
:106F7000BAFA0CE01848844209D101214FF40040CC
:106F8000FEF7B1FA00214FF40040FEF7ACFA10BD55
:106F900010B4002203881A0012F441520B884C8866
:106FA00023438C882343CC8823430C8923434C8977
:106FB00023438C892343CC8923431A430280838B48
:106FC0004FF2FF74234083830B8A038210BC704707
:106FD0000030014000380040003C0040C9B20029A8
:106FE00004D0028852F04002028004E002884FF68A
:106FF000BF731A4002807047818170478089704753
:107000000200002013890B4202D00123180001E086
:1070100000231800C0B2704780B5DFF81809007A65
:10702000812815DBDFF80C09007AA02808D1FCF7CD
:1070300017F8DFF804190870DFF8FC08007826E07C
:10704000DFF8F008007A7F30DFF8F018087003E00E
:10705000DFF8E80800210170DFF8E408DFF8DC1849
:1070600009780170DFF8DC08DFF8DC180160DFF870
:10707000CC080078DFF8CC18096811EBC000406834
:107080008047DFF8B4180870DFF8AC08007802BD5C
:1070900070B5DFF8A008C0780002DFF8B0180880EB
:1070A000DFF8A8080088DFF88C1809790818DFF8DD
:1070B0009C180880DFF87C08407A012823D0C0F0B3
:1070C0000182032861D02DD3052800F09D80C0F0F7
:1070D0008980072800F0DC80C0F0B180092800F02A
:1070E0001C81C0F0F1800B2800F04C81C0F0398188
:1070F0000D2800F06C81C0F050810F2800F0AF81A6
:10710000C0F08C81DEE1DFF8480800210170FCF757
:1071100073FBDFF8400801210170DFF81C08002133
:107120000170D7E1DFF8280800210170DFF80408BA
:10713000807ADFF824180870DFF81C08DFF8F417ED
:10714000C97A4170DFF81008DFF8E817097B817011
:10715000DFF80408DFF8DC17497BC170DFF8F807B7
:10716000DFF8D017897B0171DFF8EC07DFF8C4176F
:10717000C97B4171FCF7D9FBDFF8BC070021017026
:10718000DFF8D80700210170A4E1DFF8C40700216F
:107190000170DFF8A007C07ADFF8C4170870DFF8C5
:1071A000C007DFF89017097B4170DFF8B407DFF8FC
:1071B0008417497B8170DFF8A807DFF87817897B8F
:1071C000C170DFF89C07DFF86C17897A0171DFF86E
:1071D0008C0700210170FDF7B1F9DFF85C07002191
:1071E000017077E1DFF8680700210170DFF86C07B4
:1071F00000210170FCF79AFFDFF83C170870DFF8F8
:1072000038070021017065E1DFF8440700210170B3
:10721000DFF8480700210170DFF81807437BDFF82B
:107220001407027BDFF80C07C17ADFF80807807AC1
:10723000FCF758FCDFF80007002101704AE1DFF895
:10724000F406807AFCF7F8FEDFF818170870DFF80C
:10725000FC0601210180DFF8100701210180DFF821
:10726000F0060121017000200600F6B2002E0AD1BE
:10727000F6B2DFF8F8063018F6B2DFF8E816715CFF
:107280008170761CF1E7DFF8B0060021017021E182
:10729000DFF8C8060078012805D1DFF89806807A63
:1072A000DFF8CC160870DFF8A80600210170DFF8BF
:1072B0009C0601210180DFF8B00601210180DFF882
:1072C00078060021017005E1DFF86806807AFDF795
:1072D0000FFADFF890160870DFF8700601210180C0
:1072E000DFF8840601210180DFF8640601210170C6
:1072F00000200600F6B2002E0AD1F6B2DFF86C06C6
:107300003018F6B2DFF85C16715C8170761CF1E71C
:10731000DFF8240600210170DCE0DFF81806C07AEF
:1073200000020400DFF80C06007B0419DFF80406F5
:10733000407B00020500DFF8FC05807B45192A0030
:1073400092B2210089B2DFF8EC05807AFCF7B8FD33
:10735000DFF8FC0500210170DFF8DC050021017079
:10736000B8E0DFF8D005C17ADFF8C805807AFCF70D
:107370003EFEDFF8DC0500210170DFF8BC050021CE
:107380000170A7E0FCF738FADFF8C40500210170AE
:10739000DFF8A405002101709CE0DFF8D005002192
:1073A0008170FDF71BFADFF8C415C870DFF89C0583
:1073B00001210180DFF8B00501210180DFF890058F
:1073C00001210170DFF870050021017082E0DFF813
:1073D000800500210170DFF8840500210170DFF8CD
:1073E0006C053E210180DFF88C053E210180FCF711
:1073F000D8FF00200600F6B23C2E0ADAF6B2DFF81B
:107400006C053018F6B2DFF87015715C8170761C6F
:10741000F1E7DFF82405002101705BE000F03CFD9E
:10742000DFF82C0500210170DFF80805807ADFF80D
:107430004C150870DFF84405DFF8F814C97A41707C
:10744000DFF83C054021018000F048FDDFF80C0525
:1074500000210170DFF8E004002101703AE0DFF85C
:10746000D404C07A00020400DFF8C804007B0419C9
:10747000210089B2DFF8BC04807A00F08DFD00F0B5
:107480000FFE00200600F6B2002E0AD1F6B2DFF899
:10749000DC043018F6B2DFF8CC14715C8170761C15
:1074A000F1E7DFF8A80401210180DFF8BC04012125
:1074B0000180DFF89C0401210170DFF87C040021C9
:1074C000017007E0DFF8880400210170DFF868042C
:1074D00000210170DFF86004007870BD70B5DFF83E
:1074E0005404C0780002DFF864140880DFF85C04FC
:1074F0000088DFF8401409790818DFF85014088074
:10750000DFF83004407A012823D0C0F096810328A8
:1075100063D029D3052800F09680C0F08580072825
:1075200000F0CE80C0F0A580092800F0F580C0F002
:10753000DC800B2800F01A81C0F00B810D2800F0D0
:107540003381C0F01C810F2800F04D81C0F03581DF
:1075500073E1DFF8FC030021017000F0FDFDDFF8AE
:10756000D803002101706BE1DFF8E4030021017012
:10757000DFF8E80300210170DFF8B803807ADFF854
:1075800004140870DFF8FC03DFF8A813C97A41700F
:10759000DFF8F003DFF89C13097B8170DFF8E40368
:1075A000DFF89013497BC170DFF8D803DFF884134C
:1075B000897B0171DFF8CC03DFF87813C97B417157
:1075C000DFF8C003DFF86C13097C817100F05BFE0B
:1075D000DFF864030021017032E1DFF87403002159
:1075E0000170DFF8780300210170DFF860030121EA
:1075F0000180DFF874030121018001F00CFB002001
:107600000600F6B23E2E0ADAF6B2DFF86003301852
:10761000F6B2DFF85013715C8170761CF1E7DFF889
:107620001803002101700BE1DFF824030021017031
:10763000DFF828030021017001F01EFADFF8F802DC
:1076400000210170FCE0DFF8080300210170DFF881
:107650000C0300210170B748437BB648027BB54854
:10766000C17AB448807A00F00AFFB3480021017063
:10767000E6E0B048807A01F0A6F9BA490870B3484C
:1076800001210180B84801210180B0480121018019
:10769000B54801210180AE4801210170002006009B
:1076A000F6B2002E08D1F6B2B0483018F6B2AD49A5
:1076B000715C8170761CF3E79F4800210170BFE088
:1076C000A34800210170A14801210180A6480121A1
:1076D0000180A2480078012803D19648807AA44905
:1076E0000870954800210170AAE09248807A01F064
:1076F00015FC9C4908709548012101809A48012198
:107700000180934801210170984896490978817059
:1077100089480021017093E08648C07A0002040085
:107720008448007B04198348407B0002050081489F
:10773000807B45192A0092B2210089B27D48807A67
:1077400001F08CF88248002101707B480021017013
:1077500076E07848C17A7748807A01F00FF9764868
:10776000002101707A480021017069E000F0F4FC0A
:1077700077480021017070480021017060E001F03D
:1077800040FC784908707148012101807648012148
:1077900001806F4801210170744872490978817035
:1077A0006548002101704BE069480021017001F03B
:1077B0002BFC61480021017042E000F06DFB644841
:1077C000002101705B48807A6C4908706B48594908
:1077D000C97A41706A484021018000F07FFB564819
:1077E000002101702CE05948012101805E480121EF
:1077F00001805748012101704E48C07A0002040000
:107800004C48007B0419210089B24A48807A00F074
:10781000C3FB00F045FC00200600F6B2002E08D1A4
:10782000F6B252483018F6B24E49715C8170761C3F
:10783000F3E741480021017002E03F480021017058
:107840003D48007870BD10B54F4800210170002000
:107850000400A4B24CF25030844201DA641CF8E710
:107860004FF480714948FBF753FF494800210160FC
:107870004848006848490840B0F1005F19D100F05D
:1078800097FA00200400A4B24CF25030844201DA8E
:10789000641CF8E7414842490968016041483F4992
:1078A000096801603B48006880F308883D4800682B
:1078B00080472148002101701F48007810BD80B525
:1078C0001F480078002802D0022819D02FE0204855
:1078D000002101701848002101702048007801281B
:1078E00009D11A4800210180124881782048007887
:1078F000FCF7CEFB03E0FCF719FC0F49087016E01B
:1079000013480021017015480078012809D10F485B
:1079100000210180074881781548007801F07AF845
:1079200001E001F0A9F8044800210170FFE70248D6
:10793000007802BD0C0700207509002074090020A2
:1079400072090020EC080020D80100204409002022
:107950007309002053090020080800204E09002068
:1079600068080020900500204609002090060020AD
:107970007609002018090020D005002048080020C2
:107980002009002088080020710900200010014013
:107990000009002000D001080000FE2FE4080020AC
:1079A00004D00108E008002010B504004022054979
:1079B000012001F02DFC0448012101700348012140
:1079C000017010BD90060020560900206F090020AC
:1079D00010F00702894B1B6819004FF6FF0319408E
:1079E000874B53EA02231943844B1960704780B5D3
:1079F000FDF798FB5FF48030FDF7D0FBFDF7F9FB56
:107A0000804908707F480078012824D1102001F0B7
:107A1000A3FC022001F094FC0020FDF72FFC0020C5
:107A2000FDF744FC4FF48060FDF734FC5FF4E01197
:107A30005FF48030FDF7FDFB0120FDF708FC3920E5
:107A4000FDF760FD0028FAD00220FDF705FCFDF7E8
:107A50000FFC0828FBD101217D20FDF717FD012136
:107A60005FF08050FDF721FD01BD80B50020FDF7DE
:107A70002AFC01214FF48050FDF7F9FC01BD70474D
:107A800080B500215FF00060FDF7C0FD4FF4C060DD
:107A9000FFF79EFF43208DF8000001208DF80100C4
:107AA00000208DF8020001208DF8030000A8FDF7EA
:107AB00079FD01BD10B50400E4B2002C05D04FF4EF
:107AC00080715148FBF721FE04E04FF480714E486D
:107AD000FBF71EFE10BD70B54C48006804004C4812
:107AE000006805004B48006806003419002C09D0D6
:107AF00008224949200000F006F8042247492800DE
:107B000000F001F870BD30B4002300242300DBB284
:107B1000D2B2934215D2040F0A2C05D2DBB2040F65
:107B2000303401F8134004E0DBB2040F373401F8BD
:107B300013400001DBB211EB4304002565705B1CB0
:107B4000E5E730BC7047364803210160704780B5D7
:107B50000120ADF8000002208DF8020048208DF8C9
:107B6000030000A92F48FBF715FD4FF48060ADF826
:107B7000000002208DF8020048208DF8030000A9C3
:107B80002948FBF707FD4FF40060ADF80000022024
:107B90008DF8020048208DF8030000A92248FBF769
:107BA000F9FC1020ADF8000003208DF80200102031
:107BB0008DF8030000A91448FBF7ECFC10211248D3
:107BC000FBF7A3FD0220ADF8000002208DF80200B3
:107BD00048208DF8030000A91248FBF7DBFC0420C5
:107BE000ADF8000002208DF8020048208DF8030057
:107BF00000A90C48FBF7CEFC01BD00000CED00E035
:107C00000000FA055909002000100140E8F7FF1FA5
:107C1000ECF7FF1FF0F7FF1FCA020020DA02002076
:107C20000009002000080140000C0140E0B50620DA
:107C30008DF8000001208DF8010000208DF8020071
:107C400001208DF8030000A8FDF7ACFC07208DF89B
:107C5000000001208DF8010000208DF802000120B5
:107C60008DF8030000A8FDF79DFC08208DF80000AA
:107C700001208DF8010000208DF8020001208DF810
:107C8000030000A8FDF78EFC28208DF800000120DD
:107C90008DF8010000208DF8020001208DF803000E
:107CA00000A8FDF77FFC01210D20FDF7EFFB00216F
:107CB0000020FBF73CFD01210020FBF738FD0221ED
:107CC0000020FBF734FD0A210120FBF730FD0B21DA
:107CD0000120FBF72CFD0120019000208DF8080009
:107CE00010208DF8090001208DF80A0001A8FDF789
:107CF000B1FF0120FEF706F80220019000208DF868
:107D000008000C208DF8090001208DF80A0001A858
:107D1000FDF7A0FF0220FDF7F5FF042001900020F1
:107D20008DF808000C208DF8090001208DF80A005C
:107D300001A8FDF78FFF0420FDF7E4FF4FF48060FA
:107D4000019000208DF8080010208DF80900012016
:107D50008DF80A0001A8FDF77DFF4FF48060FDF764
:107D6000D1FF4FF40060019000208DF80800102032
:107D70008DF8090001208DF80A0001A8FDF76AFFBF
:107D80004FF40060FDF7BEFF07BD0021782202FB23
:107D900000F20723B2FBF3F2491C8A4200D3FBE74F
:107DA0007047000080B50120FFF784FE002002BD6F
:107DB0000020704780B5FFF7C6FE01BD80B5FFF714
:107DC0005EFE01BD10B50400E4B2072C01D02148CD
:107DD000047020480078002808D0022812D00BD365
:107DE000042823D015D3052829D02EE0FFF7E6FF7D
:107DF0001848062101702BE0FFF7E0FF1548042129
:107E0000017025E0134802214170124803210170DE
:107E10001EE010484078401E0E4948700D484078DA
:107E2000002802D10B480421017011E001F0CFFFBE
:107E300008480521017007480A21417008E001F057
:107E4000D2FF04480621017002E0024806210170B9
:107E500010BD00000409002080B5094809490160EF
:107E60000748006802210172074808490160084874
:107E700008490160044800680068804701BD00BFF0
:107E8000F008002074070020F408002054020020AD
:107E9000F80800208402002010B501214FF4007082
:107EA000FDF7F4FA00200400E4B2042C05DAE4B291
:107EB000974800212154641CF6E79648022101806E
:107EC00094480321817093480021C17091499248E0
:107ED000FBF760FB914801F097FF10BD80B590481B
:107EE000002101608E48002101718D4801214171FE
:107EF0008B485FF4602181608A480078002804D1B3
:107F000087484FF40061C16006E086480078012888
:107F100002D183480021C160814801210174804958
:107F20007E4801F0A0FF7F48407801280ED002284B
:107F300010D0042812D0082814D0102816D02028D9
:107F400018D040281AD080281CD01FE07648002185
:107F500001701EE07448012101701AE0724802218C
:107F6000017016E070480321017012E06E48042190
:107F700001700EE06C48052101700AE06A48062194
:107F8000017006E068480721017002E06648072199
:107F90000170FEF7C5FF01BD38B504000D005F4854
:107FA00001F032FFFFF79AFFE4B2012C06D15E48E0
:107FB000037801220921594801F0ACFF5B48058094
:107FC0005B48002101800121544801F074FF5348AF
:107FD00001F07EFF514801F080FF0028FAD14F48A0
:107FE00001F087FF4D4801F089FF0028FAD10121F7
:107FF0004A4801F060FF31BD70B504000D00160065
:108000000121464801F057FF3000461E80B200288B
:1080100041D00221414802F001F80028F9D041483E
:108020000078002813D13D4801F0EBFF414908805A
:108030004048008880B2000A3E4908803E483D49D9
:10804000098801703C48007828706D1CDCE73548D1
:1080500000780128D8D1314801F0D3FF3549088094
:108060003648344909880180334834490988017009
:108070003148007828706D1C2E48008880B2000AB4
:108080002C4908802C482B49098801702A4800781F
:1080900028706D1CB8E70021204801F00CFF70BD6E
:1080A00010B527480078012831D11E4800780128F2
:1080B00002D10120040001E0012004001B480088D7
:1080C000E4B260431F4908801E480088402803DB53
:1080D0001D484021018003E01B481A49098801809E
:1080E0001A48194909880180194800210180002097
:1080F00080B2402805DA80B2164900224254401C62
:10810000F6E71148028813490120FFF775FF10BDFB
:108110007008002094080020000C01400024014059
:10812000D40700204808002048090020200900202A
:108130002409002008090020490900200A0900201C
:108140004F0900204609002018090020440900209A
:10815000220900209005002010B500215FF4800066
:10816000FDF7A3F900214FF48050FDF78FF90121AD
:108170004FF48040FDF799F9DFF8540B032181702B
:10818000DFF84C0B4821C170DFF8440B80210180DF
:10819000DFF83C1BDFF83C0BFBF7FCF9DFF8300B9A
:1081A00010210180DFF8281BDFF8280BFBF7F2F91C
:1081B000DFF81C0B08210180DFF8141BDFF8140B1B
:1081C000FBF7E8F9DFF8080B20210180DFF8001B3E
:1081D000DFF8040BFBF7DEF9DFF8F40A4FF49051F7
:1081E0000180DFF8EC0A03218170DFF8E40A18212E
:1081F000C170DFF8DC1ADFF8DC0AFBF7CBF9DFF837
:10820000D00A4FF440610180DFF8C40A0321817075
:10821000DFF8BC0A0421C170DFF8B41ADFF8B40A31
:10822000FBF7B8F900200400E4B2042C1EDAE4B233
:10823000DFF8A80A00212154E4B20320DFF8A01AD5
:1082400000FB041000210170E4B20320DFF8901A53
:1082500000FB041000214170E4B20320DFF8801A13
:1082600000FB041000218170641CDDE7FEF758FE5E
:10827000002240F22551DFF89C0C01F06FFF002036
:10828000FEF760FC10BD10B5DFF8E00B2521017092
:10829000DFF8D80B00214170DFF8D00B002181708E
:1082A000DFF8C80B0121C170DFF8C00BFDF77AF9C8
:1082B000DFF8FC0B007804002402DFF8F40B4078B0
:1082C00004432402DFF8E80B80780443DFF8E40B72
:1082D0000460DFF8E00BDFF8D81BC9780171DFF824
:1082E000D40BDFF8CC1B09794171DFF8C80BDFF83C
:1082F000C01B49798171DFF8BC0BDFF8B41B8979A9
:10830000C171DFF80C0CDFF8AC1B09680160DFF805
:10831000A40B0079092805D1DFF8F40B4FF4805144
:10832000818003E0DFF8E80B00218180DFF8840B17
:108330008079032805D1DFF8D80B4FF48051C18034
:108340001EE0DFF8700B8079002804D1DFF8C00B45
:108350000021C18014E0DFF85C0B8079012805D191
:10836000DFF8AC0B4FF44051C18009E0DFF8440B5B
:108370008079022804D1DFF8980B4FF40051C180B6
:10838000DFF8300B4079032804D1DFF8840B00219B
:10839000018119E0DFF81C0B4079012805D1DFF8D5
:1083A000700B4FF4806101810EE0DFF8080B40791B
:1083B000022805D1DFF8580B4FF4C061018103E0BA
:1083C000DFF84C0B00210181DFF8E80AC0790428AE
:1083D00005D1DFF83C0B4FF48071818119E0DFF8A3
:1083E000D40AC079052805D1DFF8240B4FF40071B9
:1083F00081810EE0DFF8BC0AC079022805D1DFF8E0
:10840000100B4FF44071818103E0DFF8040B002171
:108410008181DFF8040B00210180DFF8FC0A0021D4
:108420004180DFF8F40A4FF400718180DFF8E80A38
:108430000021C180DFF8E01ADFF8D80A01F06EFEF3
:10844000DFF8CC0A0C214181DFF8C41ADFF8C40A36
:1084500001F0F2FD0121DFF8BC0A01F071FEDFF846
:10846000B80B3F210180DFF8B40B0021018001220D
:1084700040F22551DFF89C0A01F070FE10BD2DE995
:10848000F04104000D0016001F0000208046E4B2F9
:10849000002C00F0AD80E4B2052C80F2A980E4B29B
:1084A0000320DFF83C1800FB041010F8030C002830
:1084B00068D1E4B20320DFF8281800FB041010F89C
:1084C000020C01285ED1E4B2012C06D059D3032C52
:1084D0002DD017D3042C3FD053E0DFF8900917219B
:1084E0000170DFF8880900214170DFF88009002160
:1084F0008170DFF878090021C170DFF87009FDF79D
:1085000051F85DE0DFF8640909210170DFF85C09CA
:1085100000214170DFF8540900218170DFF84C0917
:108520000021C170DFF84409FDF73CF848E0DFF8AE
:108530003C0909210170DFF8340900214170DFF89E
:108540002C0900218170DFF824090021C170DFF8B7
:108550001C09FDF727F833E0DFF810091721017037
:10856000DFF8080900214170DFF80009002181705F
:10857000DFF8F8080021C170DFF8F008FDF712F805
:108580001EE01DE0E4B20320DFF8541700FB0410E6
:1085900010F8030C012813D1E4B20320DFF84017D0
:1085A00000FB041010F8020C012809D10021DFF8AB
:1085B0009C0AFCF7D8FB0021DFF8900AFCF7F8FBD7
:1085C000E4B20320DFF8181700FB041000F8035C86
:1085D000E4B20320DFF8081700FB041000F8026C77
:1085E000E4B20320DFF8F81600FB041000F8017C69
:1085F000E4B2012C06D019D3032C0DD007D3042CE0
:108600000FD013E0DFF8C806802101800EE0DFF80C
:10861000C0061021018009E0DFF8B40608210180BE
:1086200004E0DFF8AC0620210180FFE7EDB2002D69
:1086300002D0012D22D031E0F6B2012E19D1012055
:108640008046FFB2012F08D1DFF8040A08214171EA
:10865000DFF87C062821C1700FE0FFB2002F0CD19B
:10866000DFF8EC090C214171DFF864064821C17084
:1086700003E0DFF85C060421C1700FE0DFF850066C
:108680001021C170F6B2012E03D1DFF84406182183
:10869000C170DFF8C00901210170FFE7DFF8300683
:1086A000032181705FFA88F8B8F1000F00F0D480E0
:1086B000E4B2012C08D0C0F0CF80032C68D035D3B1
:1086C000042C00F09780C7E0DFF80416DFF80406FA
:1086D000FAF760FF07210020FBF729F8DFF88C0785
:1086E00017210170DFF8840700214170DFF87C0753
:1086F00000218170DFF874070121C170DFF86C0779
:10870000FCF750FF8020FDF7FDFADFF844098021D7
:108710000160DFF83C0900210171DFF83409012113
:108720008171DFF82C09FDF795FA95E0DFF8A015C7
:10873000DFF8A005FAF72EFF04210020FAF7F7FF73
:10874000DFF8280709210170DFF8200700214170B8
:10875000DFF8180700218170DFF810070121C170D0
:10876000DFF80807FCF71EFF1020FDF7CBFADFF853
:10877000E00810210160DFF8D80800210171DFF85E
:10878000D00801218171DFF8C808FDF763FA63E0C2
:10879000DFF83C15DFF83C05FAF7FCFE032100206A
:1087A000FAF7C5FFDFF8C40609210170DFF8BC063F
:1087B00000214170DFF8B40600218170DFF8AC06BB
:1087C0000121C170DFF8A406FCF7ECFE0820FDF7DC
:1087D00099FADFF87C0808210160DFF874080021AD
:1087E0000171DFF86C0801218171DFF86408FDF781
:1087F00031FA31E0DFF8D814DFF8DC04FAF7CAFE0A
:1088000005210220FAF793FFDFF8600617210170B7
:10881000DFF8580600214170DFF850060021817012
:10882000DFF848060121C170DFF84006FCF7BAFE08
:108830002020FDF767FADFF8180820210160DFF833
:10884000100800210171DFF8080801218171DFF8AB
:108850000008FDF7FFF9FFE7BDE8F0812DE9F843D7
:1088600004000D00160000200700E4B2032C03D022
:10887000E4B2042C40F08080E4B20320DFF86014FE
:1088800000FB041010F8030C01280BD1E4B2032004
:10889000DFF84C1400FB041010F8020C012801D181
:1088A00001200700FFB2002F66D001210820FCF74D
:1088B000FCFDDFF81C0401210180DFF81404032112
:1088C0008170DFF80C041821C170DFF80414DFF8A0
:1088D0000404FAF75FFEDFF88007ADB2B0FBF5F0F5
:1088E00081461FFA89F9B6B206FB09F0804664207A
:1088F000B8FBF0F00600DFF86407A0F80490DFF89A
:108900005C0700210180DFF854070021C180DFF8F7
:108910004C0700214180DFF84417DFF83007FCF7EF
:10892000A5F8E4B2032C04D1DFF83407012141801B
:1089300003E0DFF82C0701214180DFF824076021E4
:108940000180DFF81C07C680DFF8140700210181D1
:10895000E4B2032C0BD1DFF80817DFF8F006FCF7C0
:108960005EF90021DFF8E406FCF730FAFFE70121A9
:10897000DFF8D806FCF7F7F9BDE8F18338B5040055
:108980000D00E4B2032C02D0E4B2042C1AD1EDB2F3
:10899000012D0AD10121DFF8B406FCF709FA012103
:1089A000DFF8A806FCF7DFF90CE0EDB2002D09D1E5
:1089B0000021DFF89806FCF7D6F90021DFF88C06D5
:1089C000FCF7F6F931BD38B50400E4B2012C06D04D
:1089D0001DD3032C0FD008D3042C12D017E0802114
:1089E000BC48FAF772FE050011E01021B948FAF709
:1089F0006CFE05000BE00821B648FAF766FE05009C
:108A000005E02021B448FAF760FE0500FFE72800E2
:108A1000C0B232BD70B504000D00EDB2002D02D021
:108A20000120060001E000200600E4B2012C06D07F
:108A300021D3032C11D009D3042C15D01BE0320014
:108A4000D2B28021A348FAF766FE14E03200D2B217
:108A50001021A048FAF75FFE0DE03200D2B20821E3
:108A60009C48FAF758FE06E03200D2B220219A481C
:108A7000FAF751FEFFE770BD80B5DFF8E805007832
:108A8000012802D002282ED04CE0DFF8DC05807AE5
:108A9000DFF8D8150870DFF8D005C07ADFF8D015F8
:108AA0000870DFF8CC05DFF8C015097B4170DFF8EE
:108AB000C005DFF8B415497B8170DFF8B405DFF835
:108AC000A815897BC170DFF8AC05DFF8AC15016033
:108AD000DFF89405007CDFF8A4150880DFF8840532
:108AE000022101701EE0DFF89805DFF89015098873
:108AF0000180DFF8880500210180DFF88405038804
:108B0000DFF86C25DFF87C15DFF86005007800F0F1
:108B10000AF8DFF8680500210180DFF84805012127
:108B20000170FFE701BD2DE9F84F04000D001600AC
:108B30001F00A846BB465FF000095FF0000ADFF89F
:108B40004805002101700020FDF7FCFF1FFA8BFB98
:108B5000BBF1000F07D1DFF83005202101700120A3
:108B6000FDF7F0FF06E0DFF820050121017000208D
:108B7000FDF7E8FFA2465FFA8AFABAF1000F17D0B4
:108B8000DFF80405007801280FD15FFA8AFABAF1FC
:108B9000050F06DA5FFA8AFADAF100008019007927
:108BA00081464846C0B200F063F9BAF1010AE2E733
:108BB0005846B0F1010B80B200281ED0DFF8C8047F
:108BC0000078012816D1BB48007909280ED1B94890
:108BD000407903280AD198F8011098F8000000F0B5
:108BE0006BF918F10108BBF1010B03E098F80000E4
:108BF00000F03EF918F10108DAE7DFF88C0400789C
:108C0000012806D1DFF88004002101700020FDF763
:108C100099FFBDE8F18F10B5DFF8700440210170B5
:108C2000DFF86C04007801284FD1DFF83C04807A2B
:108C3000DFF860140870DFF83004C07ADFF8301411
:108C40000870DFF82C04DFF82014097B4170DFF88E
:108C50002004DFF81414497B8170DFF81404DFF876
:108C60000814897BC170DFF830040088402804DBD9
:108C7000DFF828044021018005E0DFF82004DFF858
:108C8000181409880180DFF8F403DFF8101409884C
:108C90000180DFF808040388DFF8D423DFF8D81355
:108CA000DFF8F003007800F01DF800200400E4B2C3
:108CB0003E2C0ADAE4B2DFF8E8032018E4B2DFF869
:108CC000B813615C8170641CF1E710BD0000000006
:108CD00094080020000801400010014054070020C3
:108CE000240800202DE9F84F04000D0016001F0095
:108CF000B8465FF000095FF0000ADFF88C0300213E
:108D000001700020FDF71EFF1FFA88F8B8F1000F70
:108D100007D1DFF87403202101700120FDF712FF55
:108D200006E0DFF86403012101700020FDF70AFF6F
:108D3000A2465FFA8AFABAF1000F17D0DFF84803AB
:108D4000007801280FD15FFA8AFABAF1050F06DA26
:108D50005FFA8AFADAF10000801900798146484604
:108D6000C0B200F085F8BAF1010AE2E7002240F251
:108D70002551684801F0F2F9DFF82803002101705D
:108D8000A64800881FFA88F8404504D31FFA88F8DF
:108D9000B8F1410F16DBBC48202101700120FDF71E
:108DA000D1FE002083461FFA8BFB1FFA88F8C345CB
:108DB0004AD21FFA8BFBB04800210BF800101BF1C0
:108DC000010BF0E795480088B0EB08009349088054
:108DD0009148008818EB00008F49088000208346E6
:108DE0001FFA8BFB1FFA88F8C3450FD2AE480088E4
:108DF0001FFA8BFBB0EB0B00AC49405C1FFA8BFBFE
:108E00009D490BF801001BF1010BE9E73F20834668
:108E10001FFA88F81FFA8BFBD8450FD21FFA8BFB7D
:108E20001FFA88F8BBEB0800A049405C1FFA8BFBD7
:108E30009E490BF80100BBF1010BE9E792480121C3
:108E400001700020FDF77EFE012240F225513148DD
:108E500001F084F98C480078012805D18A48002166
:108E600001700020FDF76EFEBDE8F18F980800202C
:108E700010B50400E4B2210089B2264801F099F946
:108E80008B48002101808021224801F09AF90028B6
:108E900003D100F0C5F80028F5D040211D4801F0AD
:108EA00090F9002803D100F0BBF80028F5D010BDE0
:108EB000880800208008002070B504000D00002004
:108EC0000600EDB22E0014F00104E4B2012C01D131
:108ED00056F48076310089B20E4801F06AF9744880
:108EE0000021018080210B4801F06BF9002803D19B
:108EF00000F096F80028F5D04021064801F061F90D
:108F0000002803D100F08CF80028F5D070BD0000D7
:108F1000F8070020003801405808002038B5040048
:108F2000E4B2012C06D069D3032C35D01BD3042C1A
:108F30004BD063E02000C0B2FFF745FD5D490871EA
:108F4000E4B203205C4900FB041010F8010C002877
:108F500005D15848007990F00100564908715548EC
:108F6000007905004AE02000C0B2FFF72CFD51490E
:108F70004871E4B20320504900FB041010F8010CC2
:108F8000002805D14B48407990F0010049494871CB
:108F900048484079050031E02000C0B2FFF713FDDA
:108FA00044498871E4B20320434900FB041010F8DF
:108FB000010C002805D13F48807990F001003D491F
:108FC00088713C488079050018E02000C0B2FFF7A6
:108FD000FAFC3849C871E4B20320374900FB041099
:108FE00010F8010C002805D13248C07990F001003A
:108FF0003049C8712F48C0790500FFE72800C0B28A
:1090000032BD21480078704780B51F4800210170AB
:109010000020FDF797FD01BD1C0900201E0900205E
:1090200080B523480088401C2149088020480088DA
:109030004FF6FB71884207DB1348102101700120B5
:10904000FDF780FD012000E0002002BD000C004083
:10905000500800204E09002040190100300800206F
:10906000E8070020500900200C0700206D090020AF
:1090700060080020E8080020900500204409002036
:109080001A0900200E0700206C0900207309002037
:109090004F0900206E090020460900201809002011
:1090A000900600205109002058030020D005002020
:1090B00042090020540700202408002038B500246D
:1090C0009D48050000202870002068600020A860EE
:1090D0004FF480602861002068610020A8610120B1
:1090E0000400042C12D2944810EB44100500012017
:1090F00068702C706C600020A8604FF4806028615C
:10910000002068610020A861641CEAE701200400D7
:10911000042C13D2884810EB441060300500002066
:1091200068702C706C600020A8604FF4806028612B
:10913000002068610020A861641CE9E77E484021A6
:1091400001617D48002181605FF0A04000F04CF992
:1091500000F0F3F900F085F900F084FA31BD38B57C
:109160000400A078000608D5A07810F07F0000F079
:10917000B9F805000120687007E0A07810F07F00C2
:1091800000F0B9F8050000206870A07810F07F00AA
:109190002870A0882861E07810F00300A860687843
:1091A000002801D028786860280000F07DFB0020AE
:1091B00032BD2DE9F04104000D0016005FF00008FB
:1091C000E4B214F07F0000F096F80700002080461B
:1091D000B04507D2786918F8000008F8050018F1C2
:1091E0000108F5E77D61BE610020F861002078701C
:1091F00014F07F0038703878002803D1380000F070
:1092000064FC02E0380000F094FB0020BDE8F0812F
:10921000F8B504000D001600E4B214F07F0000F071
:1092200061F807007D610020F861BE61012078705F
:1092300014F07F0038703878002803D1380000F02F
:1092400044FC02E0380000F074FB0020F2BD38B5A9
:109250000400200606D5E4B214F07F0000F042F8C6
:10926000050005E0E4B214F07F0000F044F80500CA
:1092700014F07F002870C4F3C010C0B210F00100D9
:109280006870280000F0B7FC002032BD70B5040003
:109290000025002614F07F000600C4F3C010C0B201
:1092A00010F0010090F001000500EDB2002D04D196
:1092B000F6B2300000F051F901E000F077F920003B
:1092C000C0B2FFF7C4FF002070BD00221100C0B281
:1092D00060F30A11194A526812680A43174B5B6817
:1092E0001A6070470100002901D1134802E01248BA
:1092F00010EB411070470100002901D10E4803E036
:109300000D4810EB41106030704782B00020009093
:10931000009850F0C0400090009850F40020009059
:109320001820009960F306010091044880690099B3
:10933000016102B07047000068030020D0060020E1
:109340000021DFF834201268110011F038010143C8
:10935000DFF8242011607047DFF81C10096831F035
:109360001001DFF814201160DFF80C1009680143C8
:10937000DFF804201160704700200240F0B40300C1
:1093800000200024002592B2D71C5FF0040C97FB4C
:10939000FCF73C00C9B2DFF8687A17EB8107BF6AB7
:1093A0003E0000273D00A54204D21F6837606D1CB7
:1093B0001B1DF8E7C0B2F0BC704770B40200002378
:1093C00089B2C81C042490FBF4F4DFF8340A856ADF
:1093D000100000263300A34204D22E6806605B1CF6
:1093E000001DF8E770BC704710B401000022002097
:1093F000DFF80C3A1960DFF8083A11F500645C6098
:1094000000231A00042A13D211EB421313F5106340
:10941000DFF8EC4914EB8204A36011EB421313F55F
:109420003063DFF8DC4914EB8204A361521CE9E7E6
:1094300000231A00042A0CD24FF4805303FB0213BA
:1094400013F58053DFF8B84914EB8204A362521C71
:10945000F0E7DFF8AC3911F560649C63C0B210BC72
:10946000704770B500240020060000200500DFF8DA
:1094700090090068C068060056F04006DFF88009D1
:109480000068C6600020050055F4002555F48035BD
:10949000DFF86C09006885634CF25030FEF775FC0C
:1094A00000F005F800F0A5F82000C0B270BD38B596
:1094B00000240025002000900520FEF766FCDFF860
:1094C00040090068006900906D1CDFF8380985428A
:1094D00001D3002020E00098C00F0028ECD000202D
:1094E0000500009850F001000090DFF814090068B2
:1094F00000990161DFF808090068006900906D1C9F
:10950000DFF80009854202D20098C007F2D4052096
:10951000FEF73BFC2000C0B232BD0020002211004B
:1095200051F00101DFF8D828126892680A43DFF889
:10953000D0381B689A60C0B270470020002211002A
:1095400051F00101DFF8B828126892688A43DFF809
:10955000B0381B689A60C0B2704770B582B0040022
:109560000025002600200090009850F02000009078
:10957000009864F38A100090DFF88408006800996E
:109580000161DFF87C08006800690090761CDFF854
:109590007408864204D20098C0F340100028F0D12D
:1095A0000520FEF7F2FB2800C0B276BD38B50024D6
:1095B000002500200090009850F010000090DFF887
:1095C0004008006800990161DFF83408006800690C
:1095D00000906D1CDFF82C08854204D20098C0F37F
:1095E00000100028F0D10520FEF7CFFB2000C0B20C
:1095F00032BD38B5002400200500DFF804080068FB
:10960000C068050055F08045DFF8F4070068C560C4
:109610004CF25030FEF7B9FB2000C0B232BDDFF88B
:10962000E0070068406910F0010090F00100704709
:109630000020DFF8CC17096849690800DFF8C01777
:10964000096889690840704700210800DFF8B017F1
:1096500049680968080050F00300DFF8A41749685A
:10966000086070472DE9F84300245FF000090020EE
:109670000500002006000020070000208046FFF7BC
:10968000E3FFDFF87C07806B00210160DFF87007E3
:1096900040680068060036F4C056DFF8640740688A
:1096A0000660DFF85C07006880214162402060F3BB
:1096B0001F47802060F30F07DFF8440700688762C8
:1096C00017EB174060F30F08402060F31F48DFF8E6
:1096D00030070068C0F804815FEA1840000418EB06
:1096E000184189B251EA0008102060F31F48DFF8E2
:1096F00010070068C0F808815FEA1840000418EB02
:10970000184189B251EA0008102060F31F48DFF8C1
:10971000F0060068C0F80C811020FFF71EFFFFF76D
:1097200045FFDFF8DC06406800210161DFF8D00664
:10973000406800214161DFF8C80640685FF0FF31F2
:109740008161DFF8BC0640680021C16100208146CC
:10975000B9F1040F29D2DFF8A80610EB8900806860
:1097600000680500E80F002806D00020050055F02D
:10977000804555F0006501E000200500DFF8800617
:1097800010EB890080680560DFF8740610EB890033
:10979000806800210161DFF8680610EB89008068AD
:1097A000FF21816019F10109D2E700208146B9F15A
:1097B000000F29D1DFF8480610EB890080690068A6
:1097C0000500E80F002806D00020050055F0804570
:1097D00055F0006501E000200500DFF8240610EBDD
:1097E000890080690560DFF8180610EB8900806940
:1097F00000210161DFF8080610EB89008069FF2174
:10980000816019F10109D2E700F004F82000C0B22C
:10981000BDE8F283002000221100DFF8E425126881
:1098200000239361DFF8D82512685FF0FF3353619E
:1098300051F0080151F0100151F4006151F48051D0
:1098400051F4005151F4802151F4002151F00041B4
:10985000DFF8AC25126892698A430A43DFF8A03525
:109860001B689A61C0B2704710B400200023190031
:1098700000231A00DFF888359B681B681900C90AA5
:10988000C902DFF87C359B68196052F48072DFF8FA
:1098900070355B685B6893431343DFF86445646825
:1098A0006360C0B210BC704770B401000020002596
:1098B0002A0000252B004D78012D0DD10D78DFF801
:1098C000406516EB8505AD682C00012591F9006017
:1098D000B54065F30F030CE00D78DFF8246516EB57
:1098E0008505AD692C00012591F90060B54065F34F
:1098F0001F4325682A00C2F3C035002D0DD10D6924
:1099000065F30A028D6865F393424D6865F39952D9
:1099100052F0805252F400422260DFF8E4546D6845
:10992000ED691D43DFF8D8647668F561C0B270BC9C
:109930007047F8B5040000260020009000200700C2
:109940006078012870D12078DFF8B41411EB800022
:109950008068006800902078DFF8A41411EB800084
:10996000806800690700A069002805D1FF0CFF048A
:10997000012060F3DC4711E0A06960F31207A069E1
:1099800021690818401E2169B0FBF1F060F3DC4743
:10999000A068012802D1012060F35E772078DFF80B
:1099A000601411EB800080680761A06801280ED068
:1099B0000020012194F9002091400800DFF84014B4
:1099C0004968496B0843DFF83814496848630098D0
:1099D00050F080600090009850F000400090A06827
:1099E00001280FD1DFF81804406880680500E805F9
:1099F00004D4009850F00050009003E0009850F01C
:109A0000805000902078DFF8F81311EB8000806818
:109A100000990160A068012854D1A26992B221780E
:109A20006069FFF7ABFC4DE02078DFF8D41311EB51
:109A300080008069006800902078DFF8C41311EB83
:109A40008000806900690700A069002806D12069AC
:109A500060F31207012060F3DC470EE0A069216982
:109A60000818401E2169B0FBF1F060F3DC47C7F332
:109A7000C9402169484360F312072078DFF880135A
:109A800011EB800080690761A06801280BD1207B61
:109A9000002804D0009850F00050009003E0009897
:109AA00050F080500090009850F080600090009836
:109AB00050F0004000902078D14911EB800080697F
:109AC000009901603000C0B2F2BDF0B40100002086
:109AD000002200263300002634004E78012E35D1B6
:109AE000C74EB66835002E6833002E6934008E6983
:109AF000002E05D1E40CE404012666F3DC440FE0FB
:109B00000E698F69BE4205D20E698E610E6966F3D9
:109B1000120402E08E6966F31204012666F3DC4447
:109B20002C6153F0806353F000432B608E69002E4C
:109B300037D0012691F90070BE403243B04E7668AE
:109B4000766B1643AE4F7F687E632AE0AC4EB669F3
:109B500036683300AA4EB669366934008E69002E25
:109B600006D10E6966F31204012666F3DC440EE0AA
:109B70008E690F69BE19761E0F69B6FBF7F666F39C
:109B8000DC44C4F3C9460F697E4366F312049C4E5D
:109B9000B669346153F0806353F00043984EB66960
:109BA0003360C0B2F0BC704730B401000020002424
:109BB00023004C78012C10D10C78914D15EB8404C6
:109BC000A468220014682300DC0F002C01D053F09D
:109BD000804353F4001313600AE00C78884D15EBB2
:109BE0008404A46922001468230053F40013136052
:109BF000C0B230BC704730B4010000200024220005
:109C00004C78012C06D10C787D4D15EB8404A468AA
:109C1000230005E00C787A4D15EB8404A469230039
:109C20001C68220032F400128C68032C02D08C686D
:109C3000022C01D152F080521A60C0B230BC704781
:109C400000206F494968896908006D494968C969F8
:109C50000840000C7047010000200A78684B13EBA5
:109C60008202926992681000654A526852691040F7
:109C7000704700206249496889690800604949685D
:109C8000C969084080B2704730B401000020002448
:109C900022004C78012C06D10C78594D15EB840428
:109CA000A468230005E00C78554D15EB8404A469E5
:109CB00023001C6822004C78012C10D1C2F34054C0
:109CC000002C02D0102420001CE0C2F34044002CE1
:109CD00002D02024200015E03024200012E0C2F33E
:109CE0004054002C03D04FF4805420000AE0C2F30B
:109CF0004044002C03D04FF40054200002E04FF405
:109D00004054200030BC7047F8B504000D0000201E
:109D100006006078012806D12078394911EB8000CF
:109D20008068070005E02078354911EB80008069E4
:109D30000700386806006078012822D1102D03D171
:109D40002000FFF731FF41E0202D02D156F00066E0
:109D50003BE0302D10D1C6F34050002805D0002044
:109D600020732000FFF747FF30E056F0806656F47E
:109D7000004656F0004628E0002D26D136F4004675
:109D800023E0B5F5805F02D156F400161DE0B5F56D
:109D9000005F02D156F0006617E0B5F5405F10D1C4
:109DA000C6F34050002805D0002020732000FFF7A4
:109DB00022FF0BE056F0806656F4004656F000464F
:109DC00003E0002D01D136F400463E60F1BD0021D4
:109DD00008000B4949684968080050F0010008492B
:109DE000496848607047002108000549496849688A
:109DF0000800400840000249496848607047000078
:109E0000D0060020410D030010B50400DFF8F80172
:109E100084420AD101214FF40070FBF755FB002169
:109E20004FF40070FBF750FB1CE0DFF8E0018442C8
:109E30000AD101214FF48060FBF746FB00214FF46B
:109E40008060FBF741FB0DE0DFF8C401844209D1DB
:109E500001214FF40040FBF737FB00214FF4004095
:109E6000FBF732FB10BD30B400230022446823000E
:109E7000DFF8A04123400C680D7954EA0524234300
:109E8000436084682300DFF890412340CC688D68EC
:109E90002C434D7954EA450423438360C46A23006C
:109EA00033F470030C7C641E2243D2B253EA025393
:109EB000C36230BC7047C9B2002904D0826852F036
:109EC0000102826003E0826852085200826070479B
:109ED000816851F0080181607047010000208A68A4
:109EE000120702D50122100001E000221000C0B2CA
:109EF0007047816851F004018160704701000020C3
:109F00008A68520702D50122100001E000221000E9
:109F1000C0B27047F0B400250024C9B20A2916DB8C
:109F2000C66835000726B1F10A075FF0030C0CFB89
:109F300007F7BE403400A543DBB2B1F10A060327A0
:109F40007E4313FA06F634002543C56011E0066926
:109F500035000726032707FB01F7BE403400A54361
:109F6000DBB2032606FB01F613FA06F6340025439E
:109F70000561D2B2072A14DA466B35001F26571E38
:109F80005FF0050C0CFB07F7BE403400A543C9B2D7
:109F9000561E05277E4311FA06F634002543456315
:109FA0002DE0D2B20D2A14DA066B35001F26D71F1A
:109FB0005FF0050C0CFB07F7BE403400A543C9B2A7
:109FC000D61F05277E4311FA06F6340025430563A4
:109FD00015E0C66A35001F26B2F10D075FF0050CCB
:109FE0000CFB07F7BE403400A543C9B2B2F10D0621
:109FF00005277E4311FA06F634002543C562F0BCFE
:10A000007047C06C80B270470024014000280140B6
:10A01000003C0140FFFEF0FFFDF7F1FF02000020D1
:10A020001368C9B20B4202D00123180001E00023DB
:10A030001800C0B2704700002DE9F04786B0040058
:10A040000D00002600275FF000085FF000095FF0B8
:10A05000000AA8890028A246208A06004CF6FF7054
:10A060000640E88806432682A08906004EF6F310D3
:10A070000640A88829890843698908430643A681C0
:10A08000A08A06004FF6FF400640A8890643A68234
:10A0900000A8FBF71CF92048824502D1039807006D
:10A0A00001E002980700A089000408D5192000FBF0
:10A0B00007F029684900B0FBF1F0804607E019205D
:10A0C00000FB07F029688900B0FBF1F080466420AE
:10A0D000B8FBF0F0000106003009642101FB10809C
:10A0E0008146A089000409D55FEAC90032306421A5
:10A0F000B0FBF1F010F00700064308E05FEA09103A
:10A1000032306421B0FBF1F010F00F0006432681DD
:10A1100006B0BDE8F08700000038014010B400220E
:10A12000038A1A004FF2FF031A400B884C8823431E
:10A130008C882343CC8823431A43028210BC704787
:10A14000C9B2002904D0828952F40052828104E00D
:10A1500082894DF6FF731A4082817047F0B4002364
:10A1600000240025002689B240F66A17B94206008D
:10A170000F00FFB27F09FFB23B0089B211F01F0749
:10A180003C000127A7403D00012B01D10C3604E023
:10A19000022B01D1103600E01436D2B2002A03D0CF
:10A1A00037682F43376002E03768AF433760F0BC51
:10A1B0007047CA05D20D828070478088C005C00DE7
:10A1C00070470200002089B2B1F5007F13880B426E
:10A1D00002D00123180001E000231800C0B270472C
:10A1E00070B40200002300250024002089B240F64C
:10A1F0006A16B1420E00F6B27609F6B2340089B2A0
:10A2000011F01F063500012616FA05F5012C02D1C2
:10A210009689354006E0022C02D1168A354001E0CD
:10A22000968A354089B20E0AB6B23300012616FA74
:10A2300003F316883340002D04D0002B02D00126F2
:10A24000300001E000263000C0B270BC704710B48E
:10A250000022002389B240F66A14A14289B20C0A96
:10A2600022000124944023009BB2DC43048010BCF4
:10A270007047000010B50400A4B2002C06D1DFF82E
:10A280009C0B006801210182002008E0DFF8900BA0
:10A29000006800688047DFF8840B00680A3010BD52
:10A2A00080B5DFF8800B4078DFF8701B0968C9784B
:10A2B00088421AD3DFF8640B00688078002814D134
:10A2C000DFF8580B0068808800280ED1DFF84C0BAF
:10A2D0000068DFF8481B0968C9788172DFF8400B15
:10A2E000006840688047002000E0022002BD10B5F1
:10A2F0000400A4B2002C06D1DFF8200B0068012175
:10A300000182002008E0DFF8180B006880688047B1
:10A31000DFF8080B00680C3010BD10B5DFF8FC0A40
:10A320000068C178DFF8F40A00684079DFF8F82A9D
:10A330001268926990470400DFF8E00A0068807AAA
:10A3400000282AD0E4B2002C0BD1DFF8D00A006834
:10A350000079002805D1DFF8C40A00688078002859
:10A3600001D002201AE0E4B2002C16D1DFF8B00AC6
:10A370000068C0688047DFF8A40A0068DFF89C1A0C
:10A3800009684979C172DFF8940A0068DFF88C1A0D
:10A390000968C9780173002000E0022010BD70B583
:10A3A0000400A4B2002C06D1DFF8700A0068022174
:10A3B0000182002079E0DFF8740A00210180DFF8D3
:10A3C0005C0A006800787F2108422AD1DFF84C0A35
:10A3D0000068407A810608D5DFF8501A097851F0F4
:10A3E0000201DFF8482A117007E0DFF8401A097807
:10A3F00011F0FD01DFF8342A1170410608D5DFF8AD
:10A400002C1A097851F00101DFF8202A117045E07B
:10A41000DFF8181A097811F0FE01DFF8102A117020
:10A420003CE0DFF8F8090068007810F07F000128B0
:10A4300002D1DFF8F80938E0DFF8E00900680078B9
:10A4400010F07F00022827D1DFF8D0090068467994
:10A4500016F00F00050030060ED52800C0B200F03F
:10A4600049FD10281AD1DFF8C409007850F0010026
:10A47000DFF8B819087011E02800C0B200F049FDFB
:10A48000B0F5805F0AD1DFF8A409007850F0010030
:10A49000DFF89819087001E0002006E0DFF8800975
:10A4A000006800698047DFF8840970BD2DE9F84332
:10A4B000DFF868090068007810F07F04002C0BD1E9
:10A4C000DFF858090068407A10F0DF00DFF84C1917
:10A4D00009684872002071E0022C6ED1DFF83C0957
:10A4E00000684088002805D1DFF83009006800794D
:10A4F000002801D0022061E0DFF828090600DFF81B
:10A500001C0900684079804638F0800081464F463B
:10A51000DFF8080900684079000606D53800C0B2A7
:10A5200000F0E8FC80B2050005E03800C0B200F0A1
:10A53000F0FC80B205003078814507D2002D05D0AF
:10A54000DFF8D8080068807A002801D1022035E0C1
:10A550005FEA08600BD53800C0B200F0CBFC1028D1
:10A5600024D130213800C0B200F005FD1EE03800D3
:10A57000C0B200F0CEFCB0F5805F17D1002F0FD134
:10A58000DFF8AC0890F82C1089B23800C0B200F0A7
:10A5900006FD4FF440513800C0B200F0DEFC05E08B
:10A5A0004FF440513800C0B200F0D7FCDFF870081B
:10A5B000006840698047002000E00220BDE8F28387
:10A5C000F8B5DFF8580800684079040034F08000DE
:10A5D00006003500DFF8440800684079000606D51B
:10A5E0002800C0B200F086FC80B2070005E0280019
:10A5F000C0B200F08EFC80B20700DFF828080078B7
:10A6000085420DD2DFF8140800684088002807D181
:10A61000002F05D0DFF804080068807A002801D1F7
:10A62000022013E0200605D510212800C0B200F05A
:10A630007FFC05E04FF480512800C0B200F08DFC93
:10A64000DFF8DC070068806980470020F2BD80B534
:10A65000DFF8C8070068407A50F02000DFF8BC1728
:10A6600009684872DFF8B8070068C06980470020B1
:10A6700002BD10B40200DFF8A4070068408A03009E
:10A6800092B2002A07D18888C01ADFF89047246860
:10A690002082002001E00868181810BC7047F8B547
:10A6A000DFF87807006810F1100420880500A06822
:10A6B000002816D0002D14D0A0880700BD4200D27B
:10A6C0002F00380080B2A168884706002088C01B90
:10A6D00020806088381860803A0031000020FEF742
:10A6E00068FD208800280CD0DFF848074FF440515F
:10A6F00001800021002000F051FCDFF83C073021F0
:10A7000001802088A188884205D3DFF810070068FF
:10A710000321017219E02088002805D0DFF8FC062B
:10A7200000680521017210E0208800280DD1DFF8B3
:10A73000EC06006806210172002200210020FEF7CD
:10A7400067FDDFF8F40630210180F1BD2DE9F0410D
:10A75000DFF8C806006810F110042588DFF8BC0691
:10A760000068067A002D1ED1042E1CD1DFF8CC061D
:10A77000007801280FD1002200210020FEF748FDBB
:10A78000DFF8B4063021018004200600DFF8AC06B3
:10A790000021017006E007200600002200210020B1
:10A7A000FEF707FD29E0A0888046A84501D30426CE
:10A7B00000E00226454500D2A846404680B2A16886
:10A7C00088470700424639000020FEF721FD414638
:10A7D00089B2002000F0E2FB2088B0EB0800208066
:10A7E000608818EB00006080DFF84C0630210180A3
:10A7F000DFF840064FF440510180DFF82006006882
:10A800000672BDE8F08170B50224DFF8100600681A
:10A810004578DFF80806006800787F2108425BD1A0
:10A82000092D03D1FFF73CFD040079E0052D23D16C
:10A83000DFF8E8050068C078802811DADFF8DC0569
:10A840000068807800280BD1DFF8D0050068808888
:10A85000002805D1DFF8C4050068807A002802D0FE
:10A86000082006007EE000200400DFF8B005006844
:10A87000C07800F0EBFA53E0032D12D1DFF89C050D
:10A880000068C078012809D1DFF890050068808849
:10A89000002803D1FFF7DBFE040041E002200400A2
:10A8A0003EE0012D3CD1DFF874050068C078012836
:10A8B0000FD1DFF8680500688088002809D1DFF82B
:10A8C0005C050068407A800603D5FFF7EFFD0400C1
:10A8D00026E00220040023E0DFF84005006800784D
:10A8E00010F07F00012805D10B2D19D1FFF715FDC0
:10A8F000040015E0DFF824050068007810F07F0000
:10A9000002280BD1012D03D1FFF7D0FD040007E091
:10A91000032D05D1FFF754FE040001E002200400DE
:10A92000E4B2002C0DD02800C0B2DFF8FC14096896
:10A93000496988470400E4B2032C02D109200600CB
:10A9400010E0E4B2002C02D0082006000AE0062045
:10A950000600002200210020FEF75AFCDFF8D80490
:10A9600030210180DFF8B4040068067270BD2DE963
:10A97000F04782B0DFF8A4040068467800200400A5
:10A9800000208146062E27D1DFF890040068007869
:10A990007F21084240F0D480DFF88004006880788E
:10A9A000C0B2012805D1DFF880140968C9690C001C
:10A9B000C6E0C0B2022805D1DFF86C140968096A44
:10A9C0000C00BDE0C0B2032840F0BA80DFF8581494
:10A9D0000968496A0C00B3E0002E78D1DFF83C0426
:10A9E00000684088002872D1DFF830040068C08811
:10A9F00002286CD1DFF8240400680079002866D1B1
:10AA0000DFF81804006800787F21084209D1DFF8D8
:10AA10000C0400688088002803D1DFF824040400B7
:10AA20008EE0DFF8F8030068007810F07F0001285E
:10AA300015D10021DFF8E40300684079DFF8E8234E
:10AA400012689269904700287AD1DFF8D003006835
:10AA5000807A002874D0DFF8E803040070E0DFF8A3
:10AA6000BC030068007810F07F00022868D1DFF88E
:10AA7000AC030068407910F00F000700DFF89C037A
:10AA80000068407910F070008046DFF8900300689D
:10AA90004079000606D53800C0B200F02BFA80B22B
:10AAA000824605E03800C0B200F033FA80B2824638
:10AAB000DFF870030078874242D2B8F1000F3FD12F
:10AAC000BAF1000F3CD0DFF87803040038E0082E1C
:10AAD0000AD1DFF84803006800787F2108422FD1AF
:10AAE000DFF8600304002BE00A2E29D1DFF82C03E5
:10AAF0000068007810F07F00012821D1DFF81C03E6
:10AB00000068807A00281BD0DFF8100300684088B6
:10AB1000002815D1C14800680079002810D1BF482D
:10AB20000068C08801280BD10021BC48006840792A
:10AB3000BD4A126892699047002801D1C2480400BA
:10AB4000200000280BD0B5480068A0F81290B34848
:10AB5000006884610020A047002005000FE0AF4896
:10AB600000684078B0490968096988470500EDB276
:10AB7000032D04D1A94800680921017264E0A748A7
:10AB80000068008A4FF6FF71884204D1A34800682C
:10AB90000921017258E0EDB2022D04D09F480068EF
:10ABA000008A002804D19D480068082101724BE00A
:10ABB0009A480068007800063ED598480068C0882A
:10ABC0000090009895490968098A884204D2934800
:10ABD00000680099018225E090480068008A8F494A
:10ABE0000968C98888421DD28C480068008A8E494D
:10ABF000096891F82C1089B2884203D28F4800214D
:10AC000001700FE085480068008A8749096891F85B
:10AC10002C1090FBF1F201FB1200002802D18748B2
:10AC2000012101707D4800687F49096891F82C1066
:10AC30008182FFF78BFD07E07848006803210172ED
:10AC40007C484FF440510180BDE8F38770B5002681
:10AC50000020FEF750FB0500686904006F4800689B
:10AC6000007A092826D06D48006821780170641C9C
:10AC70006A48006821784170641CB6B214EB46043F
:10AC80002000841C008800F08BF964490968488022
:10AC9000B6B214EB46042000841C008800F080F952
:10ACA0005E4909688880B6B214EB46045B480068C8
:10ACB0002188C18059480068012101725748006805
:10ACC000C088002802D1FFF79EFD01E0FFF74FFE8C
:10ACD00000F05AF870BD10B550480068047A022C94
:10ACE00001D0042C06D1FFF731FD4C480068007AF2
:10ACF00004001EE0062C1AD1484800684078052858
:10AD00000ED14648006800787F21084208D14348A8
:10AD10000068C07800F09AF841480068006A8047EF
:10AD200041480068806880470820040001E008204E
:10AD300004003A480068047200F026F810BD10B50F
:10AD400036480068047A022C01D0042C02D1082075
:10AD5000040013E0032C01D0052C06D1FFF79FFC63
:10AD60002E480068007A040008E0072C04D12E4821
:10AD70000068C068804701E0082004002748006898
:10AD8000047200F001F810BD10B5294890F82C109D
:10AD900089B2002000F003F920480068007A0828F2
:10ADA00007D124484FF480510180234810210180AD
:10ADB00029E01A480068007A032804D01748006880
:10ADC000007A07280CD10020FEF78CFA040000203E
:10ADD00060702000FEF779FE17483021018012E0F4
:10ADE0000E480068007A022804D00C480068007AF7
:10ADF000062808D10020FEF775FA040001206070D3
:10AE00002000FEF762FE05480068007A092801D19B
:10AE1000012000E00020C0B210BD0000F0080020BA
:10AE2000F808002054030020F4080020DC0800206B
:10AE3000540200202E090020300900207009002053
:10AE40009FA3000875A20008EFA2000810B5040037
:10AE50002000C0B2FEF739FA10BD704700B583B0CC
:10AE6000FEF72CF980208DF802004020ADF8040098
:10AE700000208DF8030000A8FEF771F900208DF87E
:10AE8000020000A8FEF76BF90020FEF734FAFEF787
:10AE900050FDFEF73AFAFEF740FB07BDF0B583B070
:10AEA00004000D0016008DF802408DF80350ADF837
:10AEB00004602000C0B2FEF7E9F900A8FEF74FF9E0
:10AEC000200609D4E4B214F07F00FEF714FA07005C
:10AED0003800FEF72EFD0CE0E4B214F07F00FEF720
:10AEE00001FA07000020387320212000C0B200F0D2
:10AEF0001FF8F7BD70B504000026E4B214F07F001F
:10AF0000FEF7F0F905002800FEF7BEFE060030004F
:10AF100070BD70B504000026E4B214F07F00FEF7A7
:10AF2000EAF905002800FEF7AFFE0600300070BD0C
:10AF300070B504000D00E4B214F07F00FEF7D2F902
:10AF40000600E4B2802C03D1102D01D101207070D5
:10AF500029003000FEF7D8FE70BD70B504000D006A
:10AF6000E4B214F07F00FEF7C6F9060029003000B5
:10AF7000FEF7CAFE70BD38B504000D00ADB2290061
:10AF80002000C0B2FFF7D4FF31BD10B504004FF46C
:10AF900040512000C0B2FFF7E0FF10BD704770477E
:10AFA0000100002200200B001A0089B2D2B2130265
:10AFB00053EA1123180080B27047000010B500203A
:10AFC0000400FFF74AFF54F00804DFF87805006832
:10AFD0004461012010BD70B500200600002004006F
:10AFE00056F01006DFF85C0500688069B043DFF8B2
:10AFF000541509688861DFF84C050068006A040090
:10B0000014F00F00FEF777F90500600C10F00F0048
:10B01000012808D0022807D0032848D0042847D0A8
:10B02000062846D056E055E0200940053BD0A868E8
:10B03000012825D1FFF711FFC4F30A1189B2DFF807
:10B0400008050068DFF804258018FEF7B6F9DFF878
:10B05000F8040068DFF8F41440186861DFF8E804C9
:10B060000068012804D1DFF8E0040021016011E04C
:10B07000DFF8D4040068401CDFF8CC14086009E055
:10B08000C4F30A1189B2DFF8C804FEF796F9DFF8B5
:10B09000C0046861C4F30A10A861E869C4F30A1126
:10B0A0000818E86102E0C4F30A10A86112E011E098
:10B0B00010E00821DFF89804FEF77FF9DFF890042C
:10B0C0006861E869C4F30A110818E861C4F30A105A
:10B0D000A861FFE7FFF7C1FEDFF868040068806938
:10B0E0003043DFF8601409688861012070BD10B535
:10B0F00000200400FFF7B1FE54F40064DFF84404BC
:10B1000000684461012010BD2DE9F0475FF0000A9E
:10B110000020040000200500002006000020070099
:10B12000002080460020814658F00108DFF8140412
:10B130004068406830EA0800DFF808144968486051
:10B140000020FEF70AFA00208246BAF1040F10D25E
:10B15000DFF8F00310EB8A008068FF218160DFF8E0
:10B16000E40310EB8A008069FF2181601AF1010A73
:10B17000EBE7DFF8D00340685FF0FF318161012029
:10B1800060F30F04012060F31F44DFF8B803406848
:10B19000C46155F0080555F0400555F0010555F01E
:10B1A0000205DFF8A0034068456156F0010656F03D
:10B1B000080656F00206DFF88C0340680661DFF8E7
:10B1C000840340680068070037F4FE67DFF8740303
:10B1D00040680760FEF799F80020814659F48059CD
:10B1E000DFF860030068C0F81490DFF86803406877
:10B1F0008047FFF732FE0120BDE8F08738B5002018
:10B20000040000200500FEF72FFBDFF8380300687C
:10B21000C0680500092060F38D25DFF82803006869
:10B22000C560FFF71AFE54F40054DFF818030068F5
:10B230004461012032BD2DE9F041002500265FF078
:10B24000000800200400FEF714FD0500002D00F0AA
:10B250008B80E80740F185803000FEF743F8070057
:10B26000380000F0F3F80400E0072CD5012097F92E
:10B27000001088408046B3484068406B30EA0800C0
:10B28000B049496848630020040054F00104AD4807
:10B2900010EB860080688460002E0ED1FFF71BFD46
:10B2A000AD4801883000C0B2FFF757FEAB480188B7
:10B2B0003000C0B2FFF73CFE05E0A94810EB860065
:10B2C00050F8040C8047C4F3C000002808D00020C8
:10B2D000040054F008049B4810EB860080688460EA
:10B2E000C4F30010002808D00020040054F010041B
:10B2F000944810EB860080688460C4F380100028B6
:10B3000008D00020040054F040048E4810EB860062
:10B3100080688460C4F3C010002813D0002E05D0CC
:10B320003000C0B2FFF7E6FD302802D1300000F057
:10B33000ABF80020040054F08004824810EB860033
:10B3400080688460C4F3400000280AD0002038736D
:10B350000020040054F002047A4810EB8600806854
:10B360008460761C6D0871E7FFF777FD0120BDE86A
:10B37000F081F8B50024002500200700FEF760FCEE
:10B380000400002C52D0E0074DD52800FDF7B3FF94
:10B3900006003000FEF75FFC0700F80713D5002019
:10B3A000070057F00107674810EB85008069876048
:10B3B000002D02D1FFF7C3FC05E06A4810EB8500C1
:10B3C00050F8040C8047C7F34000002808D0002044
:10B3D000070057F002075B4810EB85008069876023
:10B3E000C7F3C000002811D0002D06D1FFF72EFCB6
:10B3F0005A4801888020FFF79BFD0020070057F086
:10B400000807504810EB850080698760C7F38010FB
:10B41000002808D0002D06D1FFF718FC4F480188FE
:10B420008020FFF785FD6D1C6408AAE7FFF715FD76
:10B430000120F2BD10B500200400FFF70EFD54F00E
:10B440000044404800684461012010BD30B4010050
:10B450000020002300223B4C646824692300394CFF
:10B460006468646B22000C7832FA04F414F001046E
:10B4700053EAC4130C78334D15EB8404A468A46814
:10B480001C40200030BC70472DE9F8430400002721
:10B490005FF000085FF00009002005002000FDF7C4
:10B4A00021FF0600B069F169401A07003069B8420F
:10B4B00001D230690700F81C80088046214810EB53
:10B4C0008400806880690500A8B2804537D2F069A1
:10B4D000B169884233D2B069002830D0B069F169CF
:10B4E000401A07003069B84201D230690700F81CE1
:10B4F000800880463A0092B22100C9B27069FDF717
:10B500003DFFF0693818F0617069381870610D48B6
:10B5100010EB8400806880690500B069F169884299
:10B52000D2D1012096F90010884081460548406834
:10B53000406B30EA0900034949684863C4E70120C9
:10B54000BDE8F283D0060020A40800202C090020CA
:10B5500048040020540200202E0900203009002059
:10B56000E402002000030020FEE7FEE7FEE7FEE71E
:10B57000FEE7704770477047704780B50120FAF7C3
:10B58000ADFB002804D00120FAF7BCFBFBF726FB3B
:10B5900001BD80B50220FAF7A1FB002804D00220EB
:10B5A000FAF7B0FBFBF70AFB01BD80B50420FAF700
:10B5B00095FB002804D00420FAF7A4FBFBF706FB58
:10B5C00001BD80B50820FAF789FB002806D00820C5
:10B5D000FAF798FBDFF8E8030121817101BD80B51E
:10B5E0001020FAF77BFB002806D01020FAF78AFB20
:10B5F000DFF8CC030121417101BD80B500F0F2F903
:10B6000001BD80B52020FAF769FB002806D0202074
:10B61000FAF778FBDFF8A8030121C1718020FAF75F
:10B620005DFB002806D08020FAF76CFBDFF8900362
:10B63000012101714020FAF751FB002802D040207F
:10B64000FAF760FB01BD80B50221DFF87803F9F756
:10B650003CFC002804D00221DFF86803F9F74EFC17
:10B660000421DFF86003F9F730FC002804D004213E
:10B67000DFF85003F9F742FC0821DFF84803F9F737
:10B6800024FC002804D00821DFF83803F9F736FC41
:10B690001021DFF83003F9F718FC002804D010213E
:10B6A000DFF82003F9F72AFC01BDF8B500200500FA
:10B6B000002006000020070040F22551DFF80803B3
:10B6C000FEF78EFD00285AD0DFF800030088401CEA
:10B6D000BE490880BE480088002834D0BD480079A3
:10B6E000092823D1BB48407903281FD1B7480088D7
:10B6F000401CB6490880B448FEF75FFD05002E00E7
:10B70000B6B2300A0700B2480088B3494754B0487F
:10B710000088401EAE490880AD480088AE494554B7
:10B72000AB480088401EAA49088023E0A648FEF7DF
:10B7300044FDA7490988A84A8854A5480088401EA6
:10B74000A349088016E03F200400A4B2002C09D0D1
:10B75000A4B2A148201810F8010CA4B29E4960546C
:10B76000641EF2E79848FEF728FD9B490870974849
:10B770004021018040F225519348FEF768FDF1BD5C
:10B78000F8B500200400002005000020060040F26B
:10B7900025519248FEF724FD002859D08B48008897
:10B7A000401C8A4908808A480088002834D089488B
:10B7B0000079092823D18748407903281FD183487D
:10B7C0000088401C814908808448FEF7F6FC04008C
:10B7D0002500ADB2280A06007D4800887E494654FF
:10B7E0007B480088401E7A490880794800887A4959
:10B7F000445477480088401E7549088023E0774804
:10B80000FEF7DBFC72490988734A88547048008847
:10B81000401E6F49088016E03F200700BFB2002F8E
:10B8200009D0BFB26C48381810F8010CBFB26A4991
:10B8300078547F1EF2E76948FEF7BFFC664908703E
:10B8400062484021018040F225516448FEF7FFFC28
:10B85000F1BDF8B50020040000200600002005001E
:10B8600040F225515E48FEF7BBFC002859D05748EE
:10B870000088401C5549088055480088002834D06D
:10B8800054480079092823D15248407903281FD110
:10B890004E480088401C4D4908805148FEF78DFCF9
:10B8A00004002600B6B2300A0500494800884A491B
:10B8B000455447480088401E454908804448008850
:10B8C0004549445442480088401E4149088023E0CD
:10B8D0004348FEF772FC3E4909883F4A88543C4879
:10B8E0000088401E3A49088016E03F200700BFB29A
:10B8F000002F09D0BFB23848381810F8010CBFB279
:10B90000354978547F1EF2E73548FEF756FC324938
:10B9100008702E484021018040F225513048FEF742
:10B9200096FCF1BD80B54FF48060FAF7D7F9002896
:10B9300008D04FF48060FAF7E5F921480121417001
:10B94000FBF75AF94FF40060FAF7C8F9002808D05D
:10B950004FF40060FAF7D6F9194801210170FBF79E
:10B960005DF94FF48040FAF7B9F9002806D04FF49A
:10B970008040FAF7C7F91248012181704FF4005056
:10B98000FAF7ACF9002806D04FF40050FAF7BAF9EC
:10B990000B480121C1704FF40040FAF79FF90028CD
:10B9A00003D04FF40040FAF7ADF94FF48050FAF7A6
:10B9B00095F9002803D04FF48050FAF7A3F901BDA0
:10B9C00054070020002C0140003801401E090020CF
:10B9D0001C09002080080020D00500200044004001
:10B9E0000048004038B50025FDF719FE002854D066
:10B9F000FDF71EFE0400002C01D100204EE0E00FF8
:10BA0000002803D0FFF716FD28430500C4F3C0202B
:10BA100000280DD022480078002802D0FCF7CAF98F
:10BA200002E00220FCF7CEF9FFF761FB2843050096
:10BA3000C4F3C000002808D01A480078401C1949F7
:10BA40000870FFF7BBFA28430500C4F30010002874
:10BA500003D0FFF7C0FA28430500C4F340300028A4
:10BA600003D0FFF7CBFB28430500C4F300300028C8
:10BA700003D0FFF749FB28430500C4F380400028AA
:10BA800003D0FFF7D8FB28430500C4F3C0400028CB
:10BA900003D0FFF76EFC28430500280032BD00BF2D
:10BAA000650300207709002080B5FCF714F8724880
:10BAB000006800218172FCF775F900F0F1F86F4819
:10BAC0000021016001BD80B56B48006800218172D2
:10BAD000694800680021C172674800686849C979EF
:10BAE0004172684890F82C2092B203218120FFF720
:10BAF000D5F9644890F82C2092B203210220FFF778
:10BB0000CDF95E480121016001BD5B480068807A83
:10BB1000002802D059480521016070475748042188
:10BB2000016070477047704738B504000020050079
:10BB3000E4B2062C1DD150480068007810F07F0058
:10BB4000012816D14C4800684079002811D14A4894
:10BB500000688078222803D10FF2B900050015E0B3
:10BB6000454800688078212810D10FF2B9000500FF
:10BB70000CE041480068007810F07F00212805D1D2
:10BB8000E4B2032C02D10FF2D900050028000028EE
:10BB900001D1022009E03848006885613648006814
:10BBA000002141820020A847002032BD10B50400CA
:10BBB00031480068007810F07F00212805D1E4B2F8
:10BBC0000B2C02D100F043F800E0022010BD10B5AC
:10BBD00004002D49200080B2FEF74BFD10BD10B5CA
:10BBE00004002A49200080B2FEF743FD10BD38B59D
:10BBF000040021480068C578EDB2052D01DB002066
:10BC000007E0EDB2224810EBC501200080B2FEF73C
:10BC100030FD32BD10B504001E49200080B2FEF791
:10BC200028FD10BD10B504001B49200080B2FEF7AE
:10BC300020FD10BD0200C9B2002901D0022005E09C
:10BC4000D2B2002A01D0022000E0002070470A484A
:10BC50000068C1781148C9B2016000207047000037
:10BC6000010089B2002905D103480068012202823F
:10BC7000002000E009487047F0080020000900207B
:10BC800060C10008540200202C030020340300206F
:10BC9000A80200203C03002044030020FC080020F0
:10BCA00080B5FFF7DBF8002002BD000080B55F48DB
:10BCB000006850F001005D4908605D4800685D491A
:10BCC00008405B490860594800685B49084057498B
:10BCD00008605648006830F4802054490860544891
:10BCE000006830F4FE00524908605048006830F0A7
:10BCF000A0504E49086051485FF47F0101605048F0
:10BD00000021016000F005F84E485FF0006101601D
:10BD100001BD80B500F001F801BD82B000200190A6
:10BD2000002000904148006850F480303F4908608E
:10BD30003E48006810F4003000900198401C0190CB
:10BD40000098002803D10198B0F5A06FF0D13748D2
:10BD50000068800302D50120009001E000200090DF
:10BD6000009801285FD13848006850F0100036492B
:10BD70000860354800688008800033490860324810
:10BD8000006850F0020030490860294828490968D5
:10BD9000016027482649096801602548006850F479
:10BDA00080602349086026480068284908402449E3
:10BDB00008602348006840F4833050F04400204974
:10BDC00008601A48006850F08060184908601748F9
:10BDD00000680001FBD51648006830F47C10144957
:10BDE00008601348006850F4E810114908600F48D3
:10BDF000006850F080700D4908600C4800688001B0
:10BE0000FBD50B4800688008800009490860084895
:10BE1000006850F00200064908600548006810F00C
:10BE20000C000828F9D102B0704700000010024051
:10BE3000041002400000FFF0FFFFF6FE0810024071
:10BE40002C10024008ED00E00020024000F0FEFF50
:10BE500038B50400207805002D48002101702D48D8
:10BE600001210170EDB2012D04D015D3032D0FD0A7
:10BE700011D311E028484078284908702648807876
:10BE800027490870FAF7B4FC26480121017003E045
:10BE9000FBF715FD00E0FFE722480078012801D1FB
:10BEA00000F004F81A480021017031BD10B51E4899
:10BEB000007800282BD11B4800210170164804216E
:10BEC00001701548154909784170134800218170A7
:10BED00011480021C1701048002101710E48002155
:10BEE00041710D48002181710B480021C17108206A
:10BEF0000400E4B2402C05DAE4B2074800212154E2
:10BF0000641CF6E7402204490120FDF781F910BDC9
:10BF10005509002064030020100600205709002066
:10BF200058090020560900206F09002010B51A4852
:10BF300001210170402219490220FDF73AF9002041
:10BF40000400E4B2202C0DDAE4B21548E4B213493F
:10BF5000615C2154E4B21348E4B21049615C21549D
:10BF6000641CEEE71048012101700F480078012899
:10BF700005D10A48FFF76CFF0220FFF706F810BD55
:10BF800080B50A480078002804D0084800210170D4
:10BF9000FFF78CFF01BD00005209002010060020B1
:10BFA000300700200C070020550900206F090020F1
:10BFB0007C0355006E006900760065007200730016
:10BFC00061006C0020005500530042002000740006
:10BFD0006F002000530065007200690061006C0072
:10BFE000200043006F006D006D0075006E00690059
:10BFF00063006100740069006F006E00200049005A
:10C000006E007400650072006600610063006500E8
:10C010000000000000000000000000000000000020
:10C0200000000000000000000000000080B517487C
:10C0300000210170C820F6F702F9FAF763FC1448F2
:10C04000144901601148007800281BD1104800688D
:10C05000804711480078002806D110480078012850
:10C0600002D1FAF701FFEDE70D4800780028E9D08A
:10C07000094800780128E5D1094800210170FAF744
:10C08000BBFDDFE7FBF7DFFB002002BD71090020ED
:10C09000A0080020F51D00085209002062030020BE
:10C0A000630300200000C2027D052A08C30A420D76
:10C0B000A00FD811E313BE156317CE18FC19EA1AA6
:10C0C000961BFD1B201CFD1B961BEA1AFC19CE18A3
:10C0D0006317BE15E313D811A00F420DC30A2A0837
:10C0E0007D05C2020000C2027D052A08C30A420D76
:10C0F000A00FD811E313BE156317CE18FC19EA1A66
:10C10000961BFD1B058C0901A10185010903150082
:10C1100026FF007508953F918285010903B182854C
:10C12000020902150026FF007508953F81828502ED
:10C130000902B18285030904150026FF00750895E0
:10C140003F918285030904B1828504090515002603
:10C15000FF007508953F818285040905B182C00002
:10C1600009022900010100C0320904000002030095
:10C170000000092100010001225B00070581034046
:10C1800000010705020340000100000026035300E0
:10C1900054004D006900630072006F0065006C0080
:10C1A00065006300740072006F006E006900630038
:10C1B0007300000010B5074979441831064C7C44DF
:10C1C000163404E00A68081D511888470146A14248
:10C1D000F8D110BD08000000300000007B5BFFFFBD
:10C1E0005401000000000020100600006803002039
:10C1F00000000000035AFFFF14020000F0010000DD
:10C20000540100200000000000F00BF8002801D0CD
:10C21000FFF7D0FF0020C046C046FFF707FF00F041
:10C2200002F80120704700F001B8000007463846C8
:10C2300000F002F8FBE7000080B5C046C046024AA5
:10C2400011001820ABBEFBE726000200120100021D
:10C25000000000408304047010010102030100008B
:10C260002020202020414E414C4F472020202020DC
:10C270000000000020202020205350495F33305020
:10C280002020202020000000202020202055415286
:10C2900054315F3330502020000000002020202047
:10C2A0002055415254325F333050202000000000AE
:10C2B0002020202020535049202020202020000032
:10C2C0002020202020493243202020202020000050
:10C2D00020202020205541525420202020200000E2
:10C2E00020202020204932435F333050202000009E
:10C2F0000148804701480047ADBC000819C3000849
:10C3000041707220333020323031340031333A32D0
:10C31000373A323200000000C046C046C046C04630
:10C32000FFF772FF04030904FFF7FEBFFFF7FEBF2C
:10C33000FFF7FEBFFFF7FEBFFFF7FEBFFFF7FEBF31
:10C34000FFF7FEBFFFF7FEBFFFF7FEBFFFF7FEBF21
:10C35000FFF7FEBFFFF7FEBFFFF7FEBFFFF7FEBF11
:10C36000FFF7FEBFFFF7FEBFFFF7FEBFFFF7FEBF01
:10C37000FFF7FEBFFFF7FEBFFFF7FEBFFFF7FEBFF1
:10C38000FFF7FEBFFFF7FEBFFFF7FEBFFFF7FEBFE1
:10C39000FFF7FEBFFFF7FEBFFFF7FEBFFFF7FEBFD1
:10C3A000FFF7FEBFFFF7FEBFFFF7FEBFFFF7FEBFC1
:10C3B000FFF7FEBFFFF7FEBFFFF7FEBFFFF7FEBFB1
:10C3C000FFF7FEBFFFF7FEBFFFF7FEBFFFF7FEBFA1
:10C3D000FFF7FEBFFFF7FEBFFFF7FEBFFFF7FEBF91
:10C3E000FFF7FEBFFFF7FEBFFFF7FEBF000C0140E7
:10C3F0000001080002000001000C014000020C00D6
:10C40000020000010008014010000000FF000001D0
:10C41000000C014020000000FF0000010008014066
:10C42000800004000100000100100140000800002D
:10C43000FF0000010010014040000000FF0000016B
:10C440000010014001000000FF0000010010014049
:10C4500080000000FF000001001001400200000009
:10C46000FF0000010010014000100000FF0000016B
:10C47000B0C2000891700008C0C2000800000000AF
:10C48000D0C20008DD74000860C20008000000008F
:10C4900074C2000800000000E0C2000800000000B4
:10C4A00088C20008000000009CC2000800000000D4
:10C4B00000000040010000000000000000080140F2
:10C4C0000000000000040040020000000000000026
:10C4D00000080140000000000008004004000000C7
:10C4E00000000000000C014000000000A9BA000894
:10C4F000C7BA000825BB000827BB000829BB0008F5
:10C50000ADBB000835BC0008CFBB0008DFBB00088E
:10C51000EFBB000800000000400000005BAE000818
:10C520000BBB00085BAE00085BAE00085BAE00080A
:10C530005BAE00085BAE00085BAE00081DBB0008E8
:10C5400024C30008040000008CC10008260000007D
:10C55000B0BF00087C000000C80200201A000000E4
:10C560001A03530054004D003300320031003000F4
:10C5700000000000000000000000000081BF000873
:10C580005BAE00085BAE00085BAE00085BAE000867
:10C590005BAE00085BAE00085BAE00082DBF000874
:10C5A0005BAE00085BAE00085BAE00085BAE000847
:10C5B0005BAE000800000000010203040102030456
:10C5C000060708094CC200081200000060C10008FC
:10C5D0002900000004C100085B00000072C10008CF
:10C5E00009000000D0050020020406080301000035
:10C5F0003F00AAAAE803E803E803010101010000E3
:040000050800C31913
:00000001FF
